{
  "_format": "hh-sol-artifact-1",
  "contractName": "GptNft",
  "sourceName": "contracts/GptNft.sol",
  "abi": [
    {
      "inputs": [],
      "stateMutability": "nonpayable",
      "type": "constructor"
    },
    {
      "inputs": [],
      "name": "GptNftMetadata__URI_QueryFor_NonExistentToken",
      "type": "error"
    },
    {
      "anonymous": false,
      "inputs": [
        {
          "indexed": true,
          "internalType": "address",
          "name": "owner",
          "type": "address"
        },
        {
          "indexed": true,
          "internalType": "address",
          "name": "approved",
          "type": "address"
        },
        {
          "indexed": true,
          "internalType": "uint256",
          "name": "tokenId",
          "type": "uint256"
        }
      ],
      "name": "Approval",
      "type": "event"
    },
    {
      "anonymous": false,
      "inputs": [
        {
          "indexed": true,
          "internalType": "address",
          "name": "owner",
          "type": "address"
        },
        {
          "indexed": true,
          "internalType": "address",
          "name": "operator",
          "type": "address"
        },
        {
          "indexed": false,
          "internalType": "bool",
          "name": "approved",
          "type": "bool"
        }
      ],
      "name": "ApprovalForAll",
      "type": "event"
    },
    {
      "anonymous": false,
      "inputs": [
        {
          "indexed": true,
          "internalType": "uint256",
          "name": "tokenId",
          "type": "uint256"
        },
        {
          "indexed": true,
          "internalType": "string",
          "name": "imageURI",
          "type": "string"
        }
      ],
      "name": "NftMinted",
      "type": "event"
    },
    {
      "anonymous": false,
      "inputs": [
        {
          "indexed": true,
          "internalType": "address",
          "name": "previousOwner",
          "type": "address"
        },
        {
          "indexed": true,
          "internalType": "address",
          "name": "newOwner",
          "type": "address"
        }
      ],
      "name": "OwnershipTransferred",
      "type": "event"
    },
    {
      "anonymous": false,
      "inputs": [
        {
          "indexed": true,
          "internalType": "address",
          "name": "from",
          "type": "address"
        },
        {
          "indexed": true,
          "internalType": "address",
          "name": "to",
          "type": "address"
        },
        {
          "indexed": true,
          "internalType": "uint256",
          "name": "tokenId",
          "type": "uint256"
        }
      ],
      "name": "Transfer",
      "type": "event"
    },
    {
      "inputs": [
        {
          "internalType": "address",
          "name": "to",
          "type": "address"
        },
        {
          "internalType": "uint256",
          "name": "tokenId",
          "type": "uint256"
        }
      ],
      "name": "approve",
      "outputs": [],
      "stateMutability": "nonpayable",
      "type": "function"
    },
    {
      "inputs": [
        {
          "internalType": "address",
          "name": "owner",
          "type": "address"
        }
      ],
      "name": "balanceOf",
      "outputs": [
        {
          "internalType": "uint256",
          "name": "",
          "type": "uint256"
        }
      ],
      "stateMutability": "view",
      "type": "function"
    },
    {
      "inputs": [
        {
          "internalType": "uint256",
          "name": "tokenId",
          "type": "uint256"
        }
      ],
      "name": "getApproved",
      "outputs": [
        {
          "internalType": "address",
          "name": "",
          "type": "address"
        }
      ],
      "stateMutability": "view",
      "type": "function"
    },
    {
      "inputs": [
        {
          "internalType": "address",
          "name": "owner",
          "type": "address"
        },
        {
          "internalType": "address",
          "name": "operator",
          "type": "address"
        }
      ],
      "name": "isApprovedForAll",
      "outputs": [
        {
          "internalType": "bool",
          "name": "",
          "type": "bool"
        }
      ],
      "stateMutability": "view",
      "type": "function"
    },
    {
      "inputs": [
        {
          "internalType": "address",
          "name": "to",
          "type": "address"
        },
        {
          "internalType": "string",
          "name": "imageURI",
          "type": "string"
        },
        {
          "internalType": "string",
          "name": "title",
          "type": "string"
        },
        {
          "internalType": "uint256",
          "name": "price",
          "type": "uint256"
        }
      ],
      "name": "mintItem",
      "outputs": [],
      "stateMutability": "nonpayable",
      "type": "function"
    },
    {
      "inputs": [],
      "name": "name",
      "outputs": [
        {
          "internalType": "string",
          "name": "",
          "type": "string"
        }
      ],
      "stateMutability": "view",
      "type": "function"
    },
    {
      "inputs": [],
      "name": "owner",
      "outputs": [
        {
          "internalType": "address",
          "name": "",
          "type": "address"
        }
      ],
      "stateMutability": "view",
      "type": "function"
    },
    {
      "inputs": [
        {
          "internalType": "uint256",
          "name": "tokenId",
          "type": "uint256"
        }
      ],
      "name": "ownerOf",
      "outputs": [
        {
          "internalType": "address",
          "name": "",
          "type": "address"
        }
      ],
      "stateMutability": "view",
      "type": "function"
    },
    {
      "inputs": [],
      "name": "renounceOwnership",
      "outputs": [],
      "stateMutability": "nonpayable",
      "type": "function"
    },
    {
      "inputs": [
        {
          "internalType": "address",
          "name": "from",
          "type": "address"
        },
        {
          "internalType": "address",
          "name": "to",
          "type": "address"
        },
        {
          "internalType": "uint256",
          "name": "tokenId",
          "type": "uint256"
        }
      ],
      "name": "safeTransferFrom",
      "outputs": [],
      "stateMutability": "nonpayable",
      "type": "function"
    },
    {
      "inputs": [
        {
          "internalType": "address",
          "name": "from",
          "type": "address"
        },
        {
          "internalType": "address",
          "name": "to",
          "type": "address"
        },
        {
          "internalType": "uint256",
          "name": "tokenId",
          "type": "uint256"
        },
        {
          "internalType": "bytes",
          "name": "data",
          "type": "bytes"
        }
      ],
      "name": "safeTransferFrom",
      "outputs": [],
      "stateMutability": "nonpayable",
      "type": "function"
    },
    {
      "inputs": [
        {
          "internalType": "address",
          "name": "operator",
          "type": "address"
        },
        {
          "internalType": "bool",
          "name": "approved",
          "type": "bool"
        }
      ],
      "name": "setApprovalForAll",
      "outputs": [],
      "stateMutability": "nonpayable",
      "type": "function"
    },
    {
      "inputs": [
        {
          "internalType": "bytes4",
          "name": "interfaceId",
          "type": "bytes4"
        }
      ],
      "name": "supportsInterface",
      "outputs": [
        {
          "internalType": "bool",
          "name": "",
          "type": "bool"
        }
      ],
      "stateMutability": "view",
      "type": "function"
    },
    {
      "inputs": [],
      "name": "symbol",
      "outputs": [
        {
          "internalType": "string",
          "name": "",
          "type": "string"
        }
      ],
      "stateMutability": "view",
      "type": "function"
    },
    {
      "inputs": [
        {
          "internalType": "uint256",
          "name": "tokenId",
          "type": "uint256"
        }
      ],
      "name": "tokenURI",
      "outputs": [
        {
          "internalType": "string",
          "name": "",
          "type": "string"
        }
      ],
      "stateMutability": "view",
      "type": "function"
    },
    {
      "inputs": [
        {
          "internalType": "address",
          "name": "from",
          "type": "address"
        },
        {
          "internalType": "address",
          "name": "to",
          "type": "address"
        },
        {
          "internalType": "uint256",
          "name": "tokenId",
          "type": "uint256"
        }
      ],
      "name": "transferFrom",
      "outputs": [],
      "stateMutability": "nonpayable",
      "type": "function"
    },
    {
      "inputs": [
        {
          "internalType": "address",
          "name": "newOwner",
          "type": "address"
        }
      ],
      "name": "transferOwnership",
      "outputs": [],
      "stateMutability": "nonpayable",
      "type": "function"
    }
  ],
  "bytecode": "0x60806040523480156200001157600080fd5b506040518060400160405280600681526020017f4770744e667400000000000000000000000000000000000000000000000000008152506040518060400160405280600381526020017f4746540000000000000000000000000000000000000000000000000000000000815250816000908051906020019062000096929190620001a6565b508060019080519060200190620000af929190620001a6565b505050620000d2620000c6620000d860201b60201c565b620000e060201b60201c565b620002bb565b600033905090565b6000600760009054906101000a900473ffffffffffffffffffffffffffffffffffffffff16905081600760006101000a81548173ffffffffffffffffffffffffffffffffffffffff021916908373ffffffffffffffffffffffffffffffffffffffff1602179055508173ffffffffffffffffffffffffffffffffffffffff168173ffffffffffffffffffffffffffffffffffffffff167f8be0079c531659141344cd1fd0a4f28419497f9722a3daafe3b4186f6b6457e060405160405180910390a35050565b828054620001b49062000256565b90600052602060002090601f016020900481019282620001d8576000855562000224565b82601f10620001f357805160ff191683800117855562000224565b8280016001018555821562000224579182015b828111156200022357825182559160200191906001019062000206565b5b50905062000233919062000237565b5090565b5b808211156200025257600081600090555060010162000238565b5090565b600060028204905060018216806200026f57607f821691505b602082108114156200028657620002856200028c565b5b50919050565b7f4e487b7100000000000000000000000000000000000000000000000000000000600052602260045260246000fd5b6131b380620002cb6000396000f3fe608060405234801561001057600080fd5b506004361061010b5760003560e01c8063715018a6116100a2578063b88d4fde11610071578063b88d4fde146102a4578063c87b56dd146102c0578063e504d1e6146102f0578063e985e9c51461030c578063f2fde38b1461033c5761010b565b8063715018a6146102425780638da5cb5b1461024c57806395d89b411461026a578063a22cb465146102885761010b565b806323b872dd116100de57806323b872dd146101aa57806342842e0e146101c65780636352211e146101e257806370a08231146102125761010b565b806301ffc9a71461011057806306fdde0314610140578063081812fc1461015e578063095ea7b31461018e575b600080fd5b61012a600480360381019061012591906121c7565b610358565b60405161013791906126ae565b60405180910390f35b61014861043a565b60405161015591906126c9565b60405180910390f35b61017860048036038101906101739190612221565b6104cc565b6040516101859190612647565b60405180910390f35b6101a860048036038101906101a39190612187565b610512565b005b6101c460048036038101906101bf9190611fd2565b61062a565b005b6101e060048036038101906101db9190611fd2565b61068a565b005b6101fc60048036038101906101f79190612221565b6106aa565b6040516102099190612647565b60405180910390f35b61022c60048036038101906102279190611f65565b610731565b60405161023991906128ab565b60405180910390f35b61024a6107e9565b005b6102546107fd565b6040516102619190612647565b60405180910390f35b610272610827565b60405161027f91906126c9565b60405180910390f35b6102a2600480360381019061029d91906120a8565b6108b9565b005b6102be60048036038101906102b99190612025565b6108cf565b005b6102da60048036038101906102d59190612221565b610931565b6040516102e791906126c9565b60405180910390f35b61030a600480360381019061030591906120e8565b610b28565b005b61032660048036038101906103219190611f92565b610c06565b60405161033391906126ae565b60405180910390f35b61035660048036038101906103519190611f65565b610c9a565b005b60007f80ac58cd000000000000000000000000000000000000000000000000000000007bffffffffffffffffffffffffffffffffffffffffffffffffffffffff1916827bffffffffffffffffffffffffffffffffffffffffffffffffffffffff1916148061042357507f5b5e139f000000000000000000000000000000000000000000000000000000007bffffffffffffffffffffffffffffffffffffffffffffffffffffffff1916827bffffffffffffffffffffffffffffffffffffffffffffffffffffffff1916145b80610433575061043282610d1e565b5b9050919050565b60606000805461044990612b5b565b80601f016020809104026020016040519081016040528092919081815260200182805461047590612b5b565b80156104c25780601f10610497576101008083540402835291602001916104c2565b820191906000526020600020905b8154815290600101906020018083116104a557829003601f168201915b5050505050905090565b60006104d782610d88565b6004600083815260200190815260200160002060009054906101000a900473ffffffffffffffffffffffffffffffffffffffff169050919050565b600061051d826106aa565b90508073ffffffffffffffffffffffffffffffffffffffff168373ffffffffffffffffffffffffffffffffffffffff16141561058e576040517f08c379a00000000000000000000000000000000000000000000000000000000081526004016105859061286b565b60405180910390fd5b8073ffffffffffffffffffffffffffffffffffffffff166105ad610dd3565b73ffffffffffffffffffffffffffffffffffffffff1614806105dc57506105db816105d6610dd3565b610c06565b5b61061b576040517f08c379a00000000000000000000000000000000000000000000000000000000081526004016106129061288b565b60405180910390fd5b6106258383610ddb565b505050565b61063b610635610dd3565b82610e94565b61067a576040517f08c379a0000000000000000000000000000000000000000000000000000000008152600401610671906126eb565b60405180910390fd5b610685838383610f29565b505050565b6106a5838383604051806020016040528060008152506108cf565b505050565b6000806106b683611223565b9050600073ffffffffffffffffffffffffffffffffffffffff168173ffffffffffffffffffffffffffffffffffffffff161415610728576040517f08c379a000000000000000000000000000000000000000000000000000000000815260040161071f9061284b565b60405180910390fd5b80915050919050565b60008073ffffffffffffffffffffffffffffffffffffffff168273ffffffffffffffffffffffffffffffffffffffff1614156107a2576040517f08c379a0000000000000000000000000000000000000000000000000000000008152600401610799906127cb565b60405180910390fd5b600360008373ffffffffffffffffffffffffffffffffffffffff1673ffffffffffffffffffffffffffffffffffffffff168152602001908152602001600020549050919050565b6107f1611260565b6107fb60006112de565b565b6000600760009054906101000a900473ffffffffffffffffffffffffffffffffffffffff16905090565b60606001805461083690612b5b565b80601f016020809104026020016040519081016040528092919081815260200182805461086290612b5b565b80156108af5780601f10610884576101008083540402835291602001916108af565b820191906000526020600020905b81548152906001019060200180831161089257829003601f168201915b5050505050905090565b6108cb6108c4610dd3565b83836113a4565b5050565b6108e06108da610dd3565b83610e94565b61091f576040517f08c379a0000000000000000000000000000000000000000000000000000000008152600401610916906126eb565b60405180910390fd5b61092b84848484611511565b50505050565b606061093c8261156d565b610972576040517fb4cea28800000000000000000000000000000000000000000000000000000000815260040160405180910390fd5b600060096000848152602001908152602001600020805461099290612b5b565b80601f01602080910402602001604051908101604052809291908181526020018280546109be90612b5b565b8015610a0b5780601f106109e057610100808354040283529160200191610a0b565b820191906000526020600020905b8154815290600101906020018083116109ee57829003601f168201915b505050505090506000600a60008581526020019081526020016000208054610a3290612b5b565b80601f0160208091040260200160405190810160405280929190818152602001828054610a5e90612b5b565b8015610aab5780601f10610a8057610100808354040283529160200191610aab565b820191906000526020600020905b815481529060010190602001808311610a8e57829003601f168201915b505050505090506000600b6000868152602001908152602001600020549050610ad26115ae565b610afe838386604051602001610aea939291906125e6565b6040516020818303038152906040526115eb565b604051602001610b0f9291906125c2565b6040516020818303038152906040529350505050919050565b610b326008611764565b6000610b3e600861177a565b905083600960008381526020019081526020016000209080519060200190610b67929190611d79565b5082600a60008381526020019081526020016000209080519060200190610b8f929190611d79565b5081600b600083815260200190815260200160002081905550610bb28582611788565b610bbc81856117a6565b83604051610bca91906125ab565b6040518091039020817fe578c8f75165e747c939a516a93901610990f0f120d839b08ce89b77ad220f1e60405160405180910390a35050505050565b6000600560008473ffffffffffffffffffffffffffffffffffffffff1673ffffffffffffffffffffffffffffffffffffffff16815260200190815260200160002060008373ffffffffffffffffffffffffffffffffffffffff1673ffffffffffffffffffffffffffffffffffffffff16815260200190815260200160002060009054906101000a900460ff16905092915050565b610ca2611260565b600073ffffffffffffffffffffffffffffffffffffffff168173ffffffffffffffffffffffffffffffffffffffff161415610d12576040517f08c379a0000000000000000000000000000000000000000000000000000000008152600401610d099061272b565b60405180910390fd5b610d1b816112de565b50565b60007f01ffc9a7000000000000000000000000000000000000000000000000000000007bffffffffffffffffffffffffffffffffffffffffffffffffffffffff1916827bffffffffffffffffffffffffffffffffffffffffffffffffffffffff1916149050919050565b610d918161156d565b610dd0576040517f08c379a0000000000000000000000000000000000000000000000000000000008152600401610dc79061284b565b60405180910390fd5b50565b600033905090565b816004600083815260200190815260200160002060006101000a81548173ffffffffffffffffffffffffffffffffffffffff021916908373ffffffffffffffffffffffffffffffffffffffff160217905550808273ffffffffffffffffffffffffffffffffffffffff16610e4e836106aa565b73ffffffffffffffffffffffffffffffffffffffff167f8c5be1e5ebec7d5bd14f71427d1e84f3dd0314c0f7b2291e5b200ac8c7c3b92560405160405180910390a45050565b600080610ea0836106aa565b90508073ffffffffffffffffffffffffffffffffffffffff168473ffffffffffffffffffffffffffffffffffffffff161480610ee25750610ee18185610c06565b5b80610f2057508373ffffffffffffffffffffffffffffffffffffffff16610f08846104cc565b73ffffffffffffffffffffffffffffffffffffffff16145b91505092915050565b8273ffffffffffffffffffffffffffffffffffffffff16610f49826106aa565b73ffffffffffffffffffffffffffffffffffffffff1614610f9f576040517f08c379a0000000000000000000000000000000000000000000000000000000008152600401610f969061274b565b60405180910390fd5b600073ffffffffffffffffffffffffffffffffffffffff168273ffffffffffffffffffffffffffffffffffffffff16141561100f576040517f08c379a00000000000000000000000000000000000000000000000000000000081526004016110069061278b565b60405180910390fd5b61101c838383600161181a565b8273ffffffffffffffffffffffffffffffffffffffff1661103c826106aa565b73ffffffffffffffffffffffffffffffffffffffff1614611092576040517f08c379a00000000000000000000000000000000000000000000000000000000081526004016110899061274b565b60405180910390fd5b6004600082815260200190815260200160002060006101000a81549073ffffffffffffffffffffffffffffffffffffffff02191690556001600360008573ffffffffffffffffffffffffffffffffffffffff1673ffffffffffffffffffffffffffffffffffffffff168152602001908152602001600020600082825403925050819055506001600360008473ffffffffffffffffffffffffffffffffffffffff1673ffffffffffffffffffffffffffffffffffffffff16815260200190815260200160002060008282540192505081905550816002600083815260200190815260200160002060006101000a81548173ffffffffffffffffffffffffffffffffffffffff021916908373ffffffffffffffffffffffffffffffffffffffff160217905550808273ffffffffffffffffffffffffffffffffffffffff168473ffffffffffffffffffffffffffffffffffffffff167fddf252ad1be2c89b69c2b068fc378daa952ba7f163c4a11628f55a4df523b3ef60405160405180910390a461121e8383836001611940565b505050565b60006002600083815260200190815260200160002060009054906101000a900473ffffffffffffffffffffffffffffffffffffffff169050919050565b611268610dd3565b73ffffffffffffffffffffffffffffffffffffffff166112866107fd565b73ffffffffffffffffffffffffffffffffffffffff16146112dc576040517f08c379a00000000000000000000000000000000000000000000000000000000081526004016112d39061282b565b60405180910390fd5b565b6000600760009054906101000a900473ffffffffffffffffffffffffffffffffffffffff16905081600760006101000a81548173ffffffffffffffffffffffffffffffffffffffff021916908373ffffffffffffffffffffffffffffffffffffffff1602179055508173ffffffffffffffffffffffffffffffffffffffff168173ffffffffffffffffffffffffffffffffffffffff167f8be0079c531659141344cd1fd0a4f28419497f9722a3daafe3b4186f6b6457e060405160405180910390a35050565b8173ffffffffffffffffffffffffffffffffffffffff168373ffffffffffffffffffffffffffffffffffffffff161415611413576040517f08c379a000000000000000000000000000000000000000000000000000000000815260040161140a906127ab565b60405180910390fd5b80600560008573ffffffffffffffffffffffffffffffffffffffff1673ffffffffffffffffffffffffffffffffffffffff16815260200190815260200160002060008473ffffffffffffffffffffffffffffffffffffffff1673ffffffffffffffffffffffffffffffffffffffff16815260200190815260200160002060006101000a81548160ff0219169083151502179055508173ffffffffffffffffffffffffffffffffffffffff168373ffffffffffffffffffffffffffffffffffffffff167f17307eab39ab6107e8899845ad3d59bd9653f200f220920489ca2b5937696c318360405161150491906126ae565b60405180910390a3505050565b61151c848484610f29565b61152884848484611946565b611567576040517f08c379a000000000000000000000000000000000000000000000000000000000815260040161155e9061270b565b60405180910390fd5b50505050565b60008073ffffffffffffffffffffffffffffffffffffffff1661158f83611223565b73ffffffffffffffffffffffffffffffffffffffff1614159050919050565b60606040518060400160405280601581526020017f68747470733a2f2f697066732e696f2f697066732f0000000000000000000000815250905090565b606060008251141561160e5760405180602001604052806000815250905061175f565b600060405180606001604052806040815260200161313e604091399050600060036002855161163d9190612990565b61164791906129e6565b60046116539190612a17565b905060006020826116649190612990565b67ffffffffffffffff81111561167d5761167c612c55565b5b6040519080825280601f01601f1916602001820160405280156116af5781602001600182028036833780820191505090505b509050818152600183018586518101602084015b8183101561171e576003830192508251603f8160121c168501518253600182019150603f81600c1c168501518253600182019150603f8160061c168501518253600182019150603f81168501518253600182019150506116c3565b600389510660018114611738576002811461174857611753565b613d3d60f01b6002830352611753565b603d60f81b60018303525b50505050508093505050505b919050565b6001816000016000828254019250508190555050565b600081600001549050919050565b6117a2828260405180602001604052806000815250611add565b5050565b6117af8261156d565b6117ee576040517f08c379a00000000000000000000000000000000000000000000000000000000081526004016117e5906127eb565b60405180910390fd5b80600660008481526020019081526020016000209080519060200190611815929190611d79565b505050565b600181111561193a57600073ffffffffffffffffffffffffffffffffffffffff168473ffffffffffffffffffffffffffffffffffffffff16146118ae5780600360008673ffffffffffffffffffffffffffffffffffffffff1673ffffffffffffffffffffffffffffffffffffffff16815260200190815260200160002060008282546118a69190612a71565b925050819055505b600073ffffffffffffffffffffffffffffffffffffffff168373ffffffffffffffffffffffffffffffffffffffff16146119395780600360008573ffffffffffffffffffffffffffffffffffffffff1673ffffffffffffffffffffffffffffffffffffffff16815260200190815260200160002060008282546119319190612990565b925050819055505b5b50505050565b50505050565b60006119678473ffffffffffffffffffffffffffffffffffffffff16611b38565b15611ad0578373ffffffffffffffffffffffffffffffffffffffff1663150b7a02611990610dd3565b8786866040518563ffffffff1660e01b81526004016119b29493929190612662565b602060405180830381600087803b1580156119cc57600080fd5b505af19250505080156119fd57506040513d601f19601f820116820180604052508101906119fa91906121f4565b60015b611a80573d8060008114611a2d576040519150601f19603f3d011682016040523d82523d6000602084013e611a32565b606091505b50600081511415611a78576040517f08c379a0000000000000000000000000000000000000000000000000000000008152600401611a6f9061270b565b60405180910390fd5b805181602001fd5b63150b7a0260e01b7bffffffffffffffffffffffffffffffffffffffffffffffffffffffff1916817bffffffffffffffffffffffffffffffffffffffffffffffffffffffff191614915050611ad5565b600190505b949350505050565b611ae78383611b5b565b611af46000848484611946565b611b33576040517f08c379a0000000000000000000000000000000000000000000000000000000008152600401611b2a9061270b565b60405180910390fd5b505050565b6000808273ffffffffffffffffffffffffffffffffffffffff163b119050919050565b600073ffffffffffffffffffffffffffffffffffffffff168273ffffffffffffffffffffffffffffffffffffffff161415611bcb576040517f08c379a0000000000000000000000000000000000000000000000000000000008152600401611bc29061280b565b60405180910390fd5b611bd48161156d565b15611c14576040517f08c379a0000000000000000000000000000000000000000000000000000000008152600401611c0b9061276b565b60405180910390fd5b611c2260008383600161181a565b611c2b8161156d565b15611c6b576040517f08c379a0000000000000000000000000000000000000000000000000000000008152600401611c629061276b565b60405180910390fd5b6001600360008473ffffffffffffffffffffffffffffffffffffffff1673ffffffffffffffffffffffffffffffffffffffff16815260200190815260200160002060008282540192505081905550816002600083815260200190815260200160002060006101000a81548173ffffffffffffffffffffffffffffffffffffffff021916908373ffffffffffffffffffffffffffffffffffffffff160217905550808273ffffffffffffffffffffffffffffffffffffffff16600073ffffffffffffffffffffffffffffffffffffffff167fddf252ad1be2c89b69c2b068fc378daa952ba7f163c4a11628f55a4df523b3ef60405160405180910390a4611d75600083836001611940565b5050565b828054611d8590612b5b565b90600052602060002090601f016020900481019282611da75760008555611dee565b82601f10611dc057805160ff1916838001178555611dee565b82800160010185558215611dee579182015b82811115611ded578251825591602001919060010190611dd2565b5b509050611dfb9190611dff565b5090565b5b80821115611e18576000816000905550600101611e00565b5090565b6000611e2f611e2a846128eb565b6128c6565b905082815260208101848484011115611e4b57611e4a612c89565b5b611e56848285612b19565b509392505050565b6000611e71611e6c8461291c565b6128c6565b905082815260208101848484011115611e8d57611e8c612c89565b5b611e98848285612b19565b509392505050565b600081359050611eaf816130e1565b92915050565b600081359050611ec4816130f8565b92915050565b600081359050611ed98161310f565b92915050565b600081519050611eee8161310f565b92915050565b600082601f830112611f0957611f08612c84565b5b8135611f19848260208601611e1c565b91505092915050565b600082601f830112611f3757611f36612c84565b5b8135611f47848260208601611e5e565b91505092915050565b600081359050611f5f81613126565b92915050565b600060208284031215611f7b57611f7a612c93565b5b6000611f8984828501611ea0565b91505092915050565b60008060408385031215611fa957611fa8612c93565b5b6000611fb785828601611ea0565b9250506020611fc885828601611ea0565b9150509250929050565b600080600060608486031215611feb57611fea612c93565b5b6000611ff986828701611ea0565b935050602061200a86828701611ea0565b925050604061201b86828701611f50565b9150509250925092565b6000806000806080858703121561203f5761203e612c93565b5b600061204d87828801611ea0565b945050602061205e87828801611ea0565b935050604061206f87828801611f50565b925050606085013567ffffffffffffffff8111156120905761208f612c8e565b5b61209c87828801611ef4565b91505092959194509250565b600080604083850312156120bf576120be612c93565b5b60006120cd85828601611ea0565b92505060206120de85828601611eb5565b9150509250929050565b6000806000806080858703121561210257612101612c93565b5b600061211087828801611ea0565b945050602085013567ffffffffffffffff81111561213157612130612c8e565b5b61213d87828801611f22565b935050604085013567ffffffffffffffff81111561215e5761215d612c8e565b5b61216a87828801611f22565b925050606061217b87828801611f50565b91505092959194509250565b6000806040838503121561219e5761219d612c93565b5b60006121ac85828601611ea0565b92505060206121bd85828601611f50565b9150509250929050565b6000602082840312156121dd576121dc612c93565b5b60006121eb84828501611eca565b91505092915050565b60006020828403121561220a57612209612c93565b5b600061221884828501611edf565b91505092915050565b60006020828403121561223757612236612c93565b5b600061224584828501611f50565b91505092915050565b61225781612aa5565b82525050565b61226681612ab7565b82525050565b60006122778261294d565b6122818185612963565b9350612291818560208601612b28565b61229a81612c98565b840191505092915050565b60006122b082612958565b6122ba8185612974565b93506122ca818560208601612b28565b6122d381612c98565b840191505092915050565b60006122e982612958565b6122f38185612985565b9350612303818560208601612b28565b80840191505092915050565b600061231c602d83612974565b915061232782612ca9565b604082019050919050565b600061233f600b83612985565b915061234a82612cf8565b600b82019050919050565b6000612362603283612974565b915061236d82612d21565b604082019050919050565b6000612385602683612974565b915061239082612d70565b604082019050919050565b60006123a8602583612974565b91506123b382612dbf565b604082019050919050565b60006123cb601c83612974565b91506123d682612e0e565b602082019050919050565b60006123ee602483612974565b91506123f982612e37565b604082019050919050565b6000612411601983612974565b915061241c82612e86565b602082019050919050565b6000612434602983612974565b915061243f82612eaf565b604082019050919050565b6000612457602e83612974565b915061246282612efe565b604082019050919050565b600061247a600283612985565b915061248582612f4d565b600282019050919050565b600061249d600c83612985565b91506124a882612f76565b600c82019050919050565b60006124c0602083612974565b91506124cb82612f9f565b602082019050919050565b60006124e3600a83612985565b91506124ee82612fc8565b600a82019050919050565b6000612506602083612974565b915061251182612ff1565b602082019050919050565b6000612529601883612974565b91506125348261301a565b602082019050919050565b600061254c602183612974565b915061255782613043565b604082019050919050565b600061256f603d83612974565b915061257a82613092565b604082019050919050565b61258e81612b0f565b82525050565b6125a56125a082612b0f565b612bbe565b82525050565b60006125b782846122de565b915081905092915050565b60006125ce82856122de565b91506125da82846122de565b91508190509392505050565b60006125f1826124d6565b91506125fd82866122de565b915061260882612490565b91506126148285612594565b60208201915061262382612332565b915061262f82846122de565b915061263a8261246d565b9150819050949350505050565b600060208201905061265c600083018461224e565b92915050565b6000608082019050612677600083018761224e565b612684602083018661224e565b6126916040830185612585565b81810360608301526126a3818461226c565b905095945050505050565b60006020820190506126c3600083018461225d565b92915050565b600060208201905081810360008301526126e381846122a5565b905092915050565b600060208201905081810360008301526127048161230f565b9050919050565b6000602082019050818103600083015261272481612355565b9050919050565b6000602082019050818103600083015261274481612378565b9050919050565b600060208201905081810360008301526127648161239b565b9050919050565b60006020820190508181036000830152612784816123be565b9050919050565b600060208201905081810360008301526127a4816123e1565b9050919050565b600060208201905081810360008301526127c481612404565b9050919050565b600060208201905081810360008301526127e481612427565b9050919050565b600060208201905081810360008301526128048161244a565b9050919050565b60006020820190508181036000830152612824816124b3565b9050919050565b60006020820190508181036000830152612844816124f9565b9050919050565b600060208201905081810360008301526128648161251c565b9050919050565b600060208201905081810360008301526128848161253f565b9050919050565b600060208201905081810360008301526128a481612562565b9050919050565b60006020820190506128c06000830184612585565b92915050565b60006128d06128e1565b90506128dc8282612b8d565b919050565b6000604051905090565b600067ffffffffffffffff82111561290657612905612c55565b5b61290f82612c98565b9050602081019050919050565b600067ffffffffffffffff82111561293757612936612c55565b5b61294082612c98565b9050602081019050919050565b600081519050919050565b600081519050919050565b600082825260208201905092915050565b600082825260208201905092915050565b600081905092915050565b600061299b82612b0f565b91506129a683612b0f565b9250827fffffffffffffffffffffffffffffffffffffffffffffffffffffffffffffffff038211156129db576129da612bc8565b5b828201905092915050565b60006129f182612b0f565b91506129fc83612b0f565b925082612a0c57612a0b612bf7565b5b828204905092915050565b6000612a2282612b0f565b9150612a2d83612b0f565b9250817fffffffffffffffffffffffffffffffffffffffffffffffffffffffffffffffff0483118215151615612a6657612a65612bc8565b5b828202905092915050565b6000612a7c82612b0f565b9150612a8783612b0f565b925082821015612a9a57612a99612bc8565b5b828203905092915050565b6000612ab082612aef565b9050919050565b60008115159050919050565b60007fffffffff0000000000000000000000000000000000000000000000000000000082169050919050565b600073ffffffffffffffffffffffffffffffffffffffff82169050919050565b6000819050919050565b82818337600083830152505050565b60005b83811015612b46578082015181840152602081019050612b2b565b83811115612b55576000848401525b50505050565b60006002820490506001821680612b7357607f821691505b60208210811415612b8757612b86612c26565b5b50919050565b612b9682612c98565b810181811067ffffffffffffffff82111715612bb557612bb4612c55565b5b80604052505050565b6000819050919050565b7f4e487b7100000000000000000000000000000000000000000000000000000000600052601160045260246000fd5b7f4e487b7100000000000000000000000000000000000000000000000000000000600052601260045260246000fd5b7f4e487b7100000000000000000000000000000000000000000000000000000000600052602260045260246000fd5b7f4e487b7100000000000000000000000000000000000000000000000000000000600052604160045260246000fd5b600080fd5b600080fd5b600080fd5b600080fd5b6000601f19601f8301169050919050565b7f4552433732313a2063616c6c6572206973206e6f7420746f6b656e206f776e6560008201527f72206f7220617070726f76656400000000000000000000000000000000000000602082015250565b7f222c22696d616765223a22000000000000000000000000000000000000000000600082015250565b7f4552433732313a207472616e7366657220746f206e6f6e20455243373231526560008201527f63656976657220696d706c656d656e7465720000000000000000000000000000602082015250565b7f4f776e61626c653a206e6577206f776e657220697320746865207a65726f206160008201527f6464726573730000000000000000000000000000000000000000000000000000602082015250565b7f4552433732313a207472616e736665722066726f6d20696e636f72726563742060008201527f6f776e6572000000000000000000000000000000000000000000000000000000602082015250565b7f4552433732313a20746f6b656e20616c7265616479206d696e74656400000000600082015250565b7f4552433732313a207472616e7366657220746f20746865207a65726f2061646460008201527f7265737300000000000000000000000000000000000000000000000000000000602082015250565b7f4552433732313a20617070726f766520746f2063616c6c657200000000000000600082015250565b7f4552433732313a2061646472657373207a65726f206973206e6f74206120766160008201527f6c6964206f776e65720000000000000000000000000000000000000000000000602082015250565b7f45524337323155524953746f726167653a2055524920736574206f66206e6f6e60008201527f6578697374656e7420746f6b656e000000000000000000000000000000000000602082015250565b7f227d000000000000000000000000000000000000000000000000000000000000600082015250565b7f222c20227072696365223a220000000000000000000000000000000000000000600082015250565b7f4552433732313a206d696e7420746f20746865207a65726f2061646472657373600082015250565b7f7b227469746c65223a2200000000000000000000000000000000000000000000600082015250565b7f4f776e61626c653a2063616c6c6572206973206e6f7420746865206f776e6572600082015250565b7f4552433732313a20696e76616c696420746f6b656e2049440000000000000000600082015250565b7f4552433732313a20617070726f76616c20746f2063757272656e74206f776e6560008201527f7200000000000000000000000000000000000000000000000000000000000000602082015250565b7f4552433732313a20617070726f76652063616c6c6572206973206e6f7420746f60008201527f6b656e206f776e6572206f7220617070726f76656420666f7220616c6c000000602082015250565b6130ea81612aa5565b81146130f557600080fd5b50565b61310181612ab7565b811461310c57600080fd5b50565b61311881612ac3565b811461312357600080fd5b50565b61312f81612b0f565b811461313a57600080fd5b5056fe4142434445464748494a4b4c4d4e4f505152535455565758595a6162636465666768696a6b6c6d6e6f707172737475767778797a303132333435363738392b2fa2646970667358221220648c2968de13c0c29aad0791ef6949023359f10d517f2d12c6ef90c6992c9e9f64736f6c63430008070033",
  "linkReferences": {},
  "deployedLinkReferences": {}
}