{
  "_format": "hh-sol-artifact-1",
  "contractName": "GptNft",
  "sourceName": "contracts/GptNft.sol",
  "abi": [
    {
      "inputs": [],
      "stateMutability": "nonpayable",
      "type": "constructor"
    },
    {
      "anonymous": false,
      "inputs": [
        {
          "indexed": true,
          "internalType": "address",
          "name": "owner",
          "type": "address"
        },
        {
          "indexed": true,
          "internalType": "address",
          "name": "approved",
          "type": "address"
        },
        {
          "indexed": true,
          "internalType": "uint256",
          "name": "tokenId",
          "type": "uint256"
        }
      ],
      "name": "Approval",
      "type": "event"
    },
    {
      "anonymous": false,
      "inputs": [
        {
          "indexed": true,
          "internalType": "address",
          "name": "owner",
          "type": "address"
        },
        {
          "indexed": true,
          "internalType": "address",
          "name": "operator",
          "type": "address"
        },
        {
          "indexed": false,
          "internalType": "bool",
          "name": "approved",
          "type": "bool"
        }
      ],
      "name": "ApprovalForAll",
      "type": "event"
    },
    {
      "anonymous": false,
      "inputs": [
        {
          "indexed": true,
          "internalType": "uint256",
          "name": "tokenId",
          "type": "uint256"
        },
        {
          "indexed": true,
          "internalType": "string",
          "name": "uri",
          "type": "string"
        }
      ],
      "name": "NftMinted",
      "type": "event"
    },
    {
      "anonymous": false,
      "inputs": [
        {
          "indexed": true,
          "internalType": "address",
          "name": "previousOwner",
          "type": "address"
        },
        {
          "indexed": true,
          "internalType": "address",
          "name": "newOwner",
          "type": "address"
        }
      ],
      "name": "OwnershipTransferred",
      "type": "event"
    },
    {
      "anonymous": false,
      "inputs": [
        {
          "indexed": true,
          "internalType": "address",
          "name": "from",
          "type": "address"
        },
        {
          "indexed": true,
          "internalType": "address",
          "name": "to",
          "type": "address"
        },
        {
          "indexed": true,
          "internalType": "uint256",
          "name": "tokenId",
          "type": "uint256"
        }
      ],
      "name": "Transfer",
      "type": "event"
    },
    {
      "inputs": [
        {
          "internalType": "address",
          "name": "to",
          "type": "address"
        },
        {
          "internalType": "uint256",
          "name": "tokenId",
          "type": "uint256"
        }
      ],
      "name": "approve",
      "outputs": [],
      "stateMutability": "nonpayable",
      "type": "function"
    },
    {
      "inputs": [
        {
          "internalType": "address",
          "name": "owner",
          "type": "address"
        }
      ],
      "name": "balanceOf",
      "outputs": [
        {
          "internalType": "uint256",
          "name": "",
          "type": "uint256"
        }
      ],
      "stateMutability": "view",
      "type": "function"
    },
    {
      "inputs": [
        {
          "internalType": "uint256",
          "name": "tokenId",
          "type": "uint256"
        }
      ],
      "name": "getApproved",
      "outputs": [
        {
          "internalType": "address",
          "name": "",
          "type": "address"
        }
      ],
      "stateMutability": "view",
      "type": "function"
    },
    {
      "inputs": [
        {
          "internalType": "address",
          "name": "owner",
          "type": "address"
        },
        {
          "internalType": "address",
          "name": "operator",
          "type": "address"
        }
      ],
      "name": "isApprovedForAll",
      "outputs": [
        {
          "internalType": "bool",
          "name": "",
          "type": "bool"
        }
      ],
      "stateMutability": "view",
      "type": "function"
    },
    {
      "inputs": [
        {
          "internalType": "address",
          "name": "to",
          "type": "address"
        },
        {
          "internalType": "string",
          "name": "uri",
          "type": "string"
        }
      ],
      "name": "mintItem",
      "outputs": [],
      "stateMutability": "nonpayable",
      "type": "function"
    },
    {
      "inputs": [],
      "name": "name",
      "outputs": [
        {
          "internalType": "string",
          "name": "",
          "type": "string"
        }
      ],
      "stateMutability": "view",
      "type": "function"
    },
    {
      "inputs": [],
      "name": "owner",
      "outputs": [
        {
          "internalType": "address",
          "name": "",
          "type": "address"
        }
      ],
      "stateMutability": "view",
      "type": "function"
    },
    {
      "inputs": [
        {
          "internalType": "uint256",
          "name": "tokenId",
          "type": "uint256"
        }
      ],
      "name": "ownerOf",
      "outputs": [
        {
          "internalType": "address",
          "name": "",
          "type": "address"
        }
      ],
      "stateMutability": "view",
      "type": "function"
    },
    {
      "inputs": [],
      "name": "renounceOwnership",
      "outputs": [],
      "stateMutability": "nonpayable",
      "type": "function"
    },
    {
      "inputs": [
        {
          "internalType": "address",
          "name": "from",
          "type": "address"
        },
        {
          "internalType": "address",
          "name": "to",
          "type": "address"
        },
        {
          "internalType": "uint256",
          "name": "tokenId",
          "type": "uint256"
        }
      ],
      "name": "safeTransferFrom",
      "outputs": [],
      "stateMutability": "nonpayable",
      "type": "function"
    },
    {
      "inputs": [
        {
          "internalType": "address",
          "name": "from",
          "type": "address"
        },
        {
          "internalType": "address",
          "name": "to",
          "type": "address"
        },
        {
          "internalType": "uint256",
          "name": "tokenId",
          "type": "uint256"
        },
        {
          "internalType": "bytes",
          "name": "data",
          "type": "bytes"
        }
      ],
      "name": "safeTransferFrom",
      "outputs": [],
      "stateMutability": "nonpayable",
      "type": "function"
    },
    {
      "inputs": [
        {
          "internalType": "address",
          "name": "operator",
          "type": "address"
        },
        {
          "internalType": "bool",
          "name": "approved",
          "type": "bool"
        }
      ],
      "name": "setApprovalForAll",
      "outputs": [],
      "stateMutability": "nonpayable",
      "type": "function"
    },
    {
      "inputs": [
        {
          "internalType": "bytes4",
          "name": "interfaceId",
          "type": "bytes4"
        }
      ],
      "name": "supportsInterface",
      "outputs": [
        {
          "internalType": "bool",
          "name": "",
          "type": "bool"
        }
      ],
      "stateMutability": "view",
      "type": "function"
    },
    {
      "inputs": [],
      "name": "symbol",
      "outputs": [
        {
          "internalType": "string",
          "name": "",
          "type": "string"
        }
      ],
      "stateMutability": "view",
      "type": "function"
    },
    {
      "inputs": [
        {
          "internalType": "uint256",
          "name": "tokenId",
          "type": "uint256"
        }
      ],
      "name": "tokenURI",
      "outputs": [
        {
          "internalType": "string",
          "name": "",
          "type": "string"
        }
      ],
      "stateMutability": "view",
      "type": "function"
    },
    {
      "inputs": [
        {
          "internalType": "address",
          "name": "from",
          "type": "address"
        },
        {
          "internalType": "address",
          "name": "to",
          "type": "address"
        },
        {
          "internalType": "uint256",
          "name": "tokenId",
          "type": "uint256"
        }
      ],
      "name": "transferFrom",
      "outputs": [],
      "stateMutability": "nonpayable",
      "type": "function"
    },
    {
      "inputs": [
        {
          "internalType": "address",
          "name": "newOwner",
          "type": "address"
        }
      ],
      "name": "transferOwnership",
      "outputs": [],
      "stateMutability": "nonpayable",
      "type": "function"
    }
  ],
  "bytecode": "0x60806040523480156200001157600080fd5b506040518060400160405280600681526020017f4770744e667400000000000000000000000000000000000000000000000000008152506040518060400160405280600481526020017f494e465400000000000000000000000000000000000000000000000000000000815250816000908051906020019062000096929190620001a6565b508060019080519060200190620000af929190620001a6565b505050620000d2620000c6620000d860201b60201c565b620000e060201b60201c565b620002bb565b600033905090565b6000600760009054906101000a900473ffffffffffffffffffffffffffffffffffffffff16905081600760006101000a81548173ffffffffffffffffffffffffffffffffffffffff021916908373ffffffffffffffffffffffffffffffffffffffff1602179055508173ffffffffffffffffffffffffffffffffffffffff168173ffffffffffffffffffffffffffffffffffffffff167f8be0079c531659141344cd1fd0a4f28419497f9722a3daafe3b4186f6b6457e060405160405180910390a35050565b828054620001b49062000256565b90600052602060002090601f016020900481019282620001d8576000855562000224565b82601f10620001f357805160ff191683800117855562000224565b8280016001018555821562000224579182015b828111156200022357825182559160200191906001019062000206565b5b50905062000233919062000237565b5090565b5b808211156200025257600081600090555060010162000238565b5090565b600060028204905060018216806200026f57607f821691505b602082108114156200028657620002856200028c565b5b50919050565b7f4e487b7100000000000000000000000000000000000000000000000000000000600052602260045260246000fd5b612ed180620002cb6000396000f3fe608060405234801561001057600080fd5b506004361061010b5760003560e01c806370a08231116100a2578063a22cb46511610071578063a22cb465146102a4578063b88d4fde146102c0578063c87b56dd146102dc578063e985e9c51461030c578063f2fde38b1461033c5761010b565b806370a082311461022e578063715018a61461025e5780638da5cb5b1461026857806395d89b41146102865761010b565b8063110bcd45116100de578063110bcd45146101aa57806323b872dd146101c657806342842e0e146101e25780636352211e146101fe5761010b565b806301ffc9a71461011057806306fdde0314610140578063081812fc1461015e578063095ea7b31461018e575b600080fd5b61012a60048036038101906101259190612162565b610358565b6040516101379190612545565b60405180910390f35b61014861043a565b6040516101559190612560565b60405180910390f35b610178600480360381019061017391906121bc565b6104cc565b60405161018591906124de565b60405180910390f35b6101a860048036038101906101a39190612122565b610512565b005b6101c460048036038101906101bf91906120c6565b61062a565b005b6101e060048036038101906101db9190611fb0565b61069e565b005b6101fc60048036038101906101f79190611fb0565b6106fe565b005b610218600480360381019061021391906121bc565b61071e565b60405161022591906124de565b60405180910390f35b61024860048036038101906102439190611f43565b6107a5565b6040516102559190612742565b60405180910390f35b61026661085d565b005b610270610871565b60405161027d91906124de565b60405180910390f35b61028e61089b565b60405161029b9190612560565b60405180910390f35b6102be60048036038101906102b99190612086565b61092d565b005b6102da60048036038101906102d59190612003565b610943565b005b6102f660048036038101906102f191906121bc565b6109a5565b6040516103039190612560565b60405180910390f35b61032660048036038101906103219190611f70565b6109b7565b6040516103339190612545565b60405180910390f35b61035660048036038101906103519190611f43565b610a4b565b005b60007f80ac58cd000000000000000000000000000000000000000000000000000000007bffffffffffffffffffffffffffffffffffffffffffffffffffffffff1916827bffffffffffffffffffffffffffffffffffffffffffffffffffffffff1916148061042357507f5b5e139f000000000000000000000000000000000000000000000000000000007bffffffffffffffffffffffffffffffffffffffffffffffffffffffff1916827bffffffffffffffffffffffffffffffffffffffffffffffffffffffff1916145b80610433575061043282610acf565b5b9050919050565b60606000805461044990612967565b80601f016020809104026020016040519081016040528092919081815260200182805461047590612967565b80156104c25780601f10610497576101008083540402835291602001916104c2565b820191906000526020600020905b8154815290600101906020018083116104a557829003601f168201915b5050505050905090565b60006104d782610b39565b6004600083815260200190815260200160002060009054906101000a900473ffffffffffffffffffffffffffffffffffffffff169050919050565b600061051d8261071e565b90508073ffffffffffffffffffffffffffffffffffffffff168373ffffffffffffffffffffffffffffffffffffffff16141561058e576040517f08c379a000000000000000000000000000000000000000000000000000000000815260040161058590612702565b60405180910390fd5b8073ffffffffffffffffffffffffffffffffffffffff166105ad610b84565b73ffffffffffffffffffffffffffffffffffffffff1614806105dc57506105db816105d6610b84565b6109b7565b5b61061b576040517f08c379a000000000000000000000000000000000000000000000000000000000815260040161061290612722565b60405180910390fd5b6106258383610b8c565b505050565b6106346008610c45565b60006106406008610c5b565b905061064c8382610c69565b6106568183610c87565b8160405161066491906124a3565b6040518091039020817fe578c8f75165e747c939a516a93901610990f0f120d839b08ce89b77ad220f1e60405160405180910390a3505050565b6106af6106a9610b84565b82610cfb565b6106ee576040517f08c379a00000000000000000000000000000000000000000000000000000000081526004016106e590612582565b60405180910390fd5b6106f9838383610d90565b505050565b61071983838360405180602001604052806000815250610943565b505050565b60008061072a8361108a565b9050600073ffffffffffffffffffffffffffffffffffffffff168173ffffffffffffffffffffffffffffffffffffffff16141561079c576040517f08c379a0000000000000000000000000000000000000000000000000000000008152600401610793906126e2565b60405180910390fd5b80915050919050565b60008073ffffffffffffffffffffffffffffffffffffffff168273ffffffffffffffffffffffffffffffffffffffff161415610816576040517f08c379a000000000000000000000000000000000000000000000000000000000815260040161080d90612662565b60405180910390fd5b600360008373ffffffffffffffffffffffffffffffffffffffff1673ffffffffffffffffffffffffffffffffffffffff168152602001908152602001600020549050919050565b6108656110c7565b61086f6000611145565b565b6000600760009054906101000a900473ffffffffffffffffffffffffffffffffffffffff16905090565b6060600180546108aa90612967565b80601f01602080910402602001604051908101604052809291908181526020018280546108d690612967565b80156109235780601f106108f857610100808354040283529160200191610923565b820191906000526020600020905b81548152906001019060200180831161090657829003601f168201915b5050505050905090565b61093f610938610b84565b838361120b565b5050565b61095461094e610b84565b83610cfb565b610993576040517f08c379a000000000000000000000000000000000000000000000000000000000815260040161098a90612582565b60405180910390fd5b61099f84848484611378565b50505050565b60606109b0826113d4565b9050919050565b6000600560008473ffffffffffffffffffffffffffffffffffffffff1673ffffffffffffffffffffffffffffffffffffffff16815260200190815260200160002060008373ffffffffffffffffffffffffffffffffffffffff1673ffffffffffffffffffffffffffffffffffffffff16815260200190815260200160002060009054906101000a900460ff16905092915050565b610a536110c7565b600073ffffffffffffffffffffffffffffffffffffffff168173ffffffffffffffffffffffffffffffffffffffff161415610ac3576040517f08c379a0000000000000000000000000000000000000000000000000000000008152600401610aba906125c2565b60405180910390fd5b610acc81611145565b50565b60007f01ffc9a7000000000000000000000000000000000000000000000000000000007bffffffffffffffffffffffffffffffffffffffffffffffffffffffff1916827bffffffffffffffffffffffffffffffffffffffffffffffffffffffff1916149050919050565b610b42816114e7565b610b81576040517f08c379a0000000000000000000000000000000000000000000000000000000008152600401610b78906126e2565b60405180910390fd5b50565b600033905090565b816004600083815260200190815260200160002060006101000a81548173ffffffffffffffffffffffffffffffffffffffff021916908373ffffffffffffffffffffffffffffffffffffffff160217905550808273ffffffffffffffffffffffffffffffffffffffff16610bff8361071e565b73ffffffffffffffffffffffffffffffffffffffff167f8c5be1e5ebec7d5bd14f71427d1e84f3dd0314c0f7b2291e5b200ac8c7c3b92560405160405180910390a45050565b6001816000016000828254019250508190555050565b600081600001549050919050565b610c83828260405180602001604052806000815250611528565b5050565b610c90826114e7565b610ccf576040517f08c379a0000000000000000000000000000000000000000000000000000000008152600401610cc690612682565b60405180910390fd5b80600660008481526020019081526020016000209080519060200190610cf6929190611d57565b505050565b600080610d078361071e565b90508073ffffffffffffffffffffffffffffffffffffffff168473ffffffffffffffffffffffffffffffffffffffff161480610d495750610d4881856109b7565b5b80610d8757508373ffffffffffffffffffffffffffffffffffffffff16610d6f846104cc565b73ffffffffffffffffffffffffffffffffffffffff16145b91505092915050565b8273ffffffffffffffffffffffffffffffffffffffff16610db08261071e565b73ffffffffffffffffffffffffffffffffffffffff1614610e06576040517f08c379a0000000000000000000000000000000000000000000000000000000008152600401610dfd906125e2565b60405180910390fd5b600073ffffffffffffffffffffffffffffffffffffffff168273ffffffffffffffffffffffffffffffffffffffff161415610e76576040517f08c379a0000000000000000000000000000000000000000000000000000000008152600401610e6d90612622565b60405180910390fd5b610e838383836001611583565b8273ffffffffffffffffffffffffffffffffffffffff16610ea38261071e565b73ffffffffffffffffffffffffffffffffffffffff1614610ef9576040517f08c379a0000000000000000000000000000000000000000000000000000000008152600401610ef0906125e2565b60405180910390fd5b6004600082815260200190815260200160002060006101000a81549073ffffffffffffffffffffffffffffffffffffffff02191690556001600360008573ffffffffffffffffffffffffffffffffffffffff1673ffffffffffffffffffffffffffffffffffffffff168152602001908152602001600020600082825403925050819055506001600360008473ffffffffffffffffffffffffffffffffffffffff1673ffffffffffffffffffffffffffffffffffffffff16815260200190815260200160002060008282540192505081905550816002600083815260200190815260200160002060006101000a81548173ffffffffffffffffffffffffffffffffffffffff021916908373ffffffffffffffffffffffffffffffffffffffff160217905550808273ffffffffffffffffffffffffffffffffffffffff168473ffffffffffffffffffffffffffffffffffffffff167fddf252ad1be2c89b69c2b068fc378daa952ba7f163c4a11628f55a4df523b3ef60405160405180910390a461108583838360016116a9565b505050565b60006002600083815260200190815260200160002060009054906101000a900473ffffffffffffffffffffffffffffffffffffffff169050919050565b6110cf610b84565b73ffffffffffffffffffffffffffffffffffffffff166110ed610871565b73ffffffffffffffffffffffffffffffffffffffff1614611143576040517f08c379a000000000000000000000000000000000000000000000000000000000815260040161113a906126c2565b60405180910390fd5b565b6000600760009054906101000a900473ffffffffffffffffffffffffffffffffffffffff16905081600760006101000a81548173ffffffffffffffffffffffffffffffffffffffff021916908373ffffffffffffffffffffffffffffffffffffffff1602179055508173ffffffffffffffffffffffffffffffffffffffff168173ffffffffffffffffffffffffffffffffffffffff167f8be0079c531659141344cd1fd0a4f28419497f9722a3daafe3b4186f6b6457e060405160405180910390a35050565b8173ffffffffffffffffffffffffffffffffffffffff168373ffffffffffffffffffffffffffffffffffffffff16141561127a576040517f08c379a000000000000000000000000000000000000000000000000000000000815260040161127190612642565b60405180910390fd5b80600560008573ffffffffffffffffffffffffffffffffffffffff1673ffffffffffffffffffffffffffffffffffffffff16815260200190815260200160002060008473ffffffffffffffffffffffffffffffffffffffff1673ffffffffffffffffffffffffffffffffffffffff16815260200190815260200160002060006101000a81548160ff0219169083151502179055508173ffffffffffffffffffffffffffffffffffffffff168373ffffffffffffffffffffffffffffffffffffffff167f17307eab39ab6107e8899845ad3d59bd9653f200f220920489ca2b5937696c318360405161136b9190612545565b60405180910390a3505050565b611383848484610d90565b61138f848484846116af565b6113ce576040517f08c379a00000000000000000000000000000000000000000000000000000000081526004016113c5906125a2565b60405180910390fd5b50505050565b60606113df82610b39565b60006006600084815260200190815260200160002080546113ff90612967565b80601f016020809104026020016040519081016040528092919081815260200182805461142b90612967565b80156114785780601f1061144d57610100808354040283529160200191611478565b820191906000526020600020905b81548152906001019060200180831161145b57829003601f168201915b505050505090506000611489611846565b905060008151141561149f5781925050506114e2565b6000825111156114d45780826040516020016114bc9291906124ba565b604051602081830303815290604052925050506114e2565b6114dd84611883565b925050505b919050565b60008073ffffffffffffffffffffffffffffffffffffffff166115098361108a565b73ffffffffffffffffffffffffffffffffffffffff1614159050919050565b61153283836118eb565b61153f60008484846116af565b61157e576040517f08c379a0000000000000000000000000000000000000000000000000000000008152600401611575906125a2565b60405180910390fd5b505050565b60018111156116a357600073ffffffffffffffffffffffffffffffffffffffff168473ffffffffffffffffffffffffffffffffffffffff16146116175780600360008673ffffffffffffffffffffffffffffffffffffffff1673ffffffffffffffffffffffffffffffffffffffff168152602001908152602001600020600082825461160f919061287d565b925050819055505b600073ffffffffffffffffffffffffffffffffffffffff168373ffffffffffffffffffffffffffffffffffffffff16146116a25780600360008573ffffffffffffffffffffffffffffffffffffffff1673ffffffffffffffffffffffffffffffffffffffff168152602001908152602001600020600082825461169a9190612827565b925050819055505b5b50505050565b50505050565b60006116d08473ffffffffffffffffffffffffffffffffffffffff16611b09565b15611839578373ffffffffffffffffffffffffffffffffffffffff1663150b7a026116f9610b84565b8786866040518563ffffffff1660e01b815260040161171b94939291906124f9565b602060405180830381600087803b15801561173557600080fd5b505af192505050801561176657506040513d601f19601f82011682018060405250810190611763919061218f565b60015b6117e9573d8060008114611796576040519150601f19603f3d011682016040523d82523d6000602084013e61179b565b606091505b506000815114156117e1576040517f08c379a00000000000000000000000000000000000000000000000000000000081526004016117d8906125a2565b60405180910390fd5b805181602001fd5b63150b7a0260e01b7bffffffffffffffffffffffffffffffffffffffffffffffffffffffff1916817bffffffffffffffffffffffffffffffffffffffffffffffffffffffff19161491505061183e565b600190505b949350505050565b60606040518060400160405280601581526020017f68747470733a2f2f697066732e696f2f697066732f0000000000000000000000815250905090565b606061188e82610b39565b6000611898611846565b905060008151116118b857604051806020016040528060008152506118e3565b806118c284611b2c565b6040516020016118d39291906124ba565b6040516020818303038152906040525b915050919050565b600073ffffffffffffffffffffffffffffffffffffffff168273ffffffffffffffffffffffffffffffffffffffff16141561195b576040517f08c379a0000000000000000000000000000000000000000000000000000000008152600401611952906126a2565b60405180910390fd5b611964816114e7565b156119a4576040517f08c379a000000000000000000000000000000000000000000000000000000000815260040161199b90612602565b60405180910390fd5b6119b2600083836001611583565b6119bb816114e7565b156119fb576040517f08c379a00000000000000000000000000000000000000000000000000000000081526004016119f290612602565b60405180910390fd5b6001600360008473ffffffffffffffffffffffffffffffffffffffff1673ffffffffffffffffffffffffffffffffffffffff16815260200190815260200160002060008282540192505081905550816002600083815260200190815260200160002060006101000a81548173ffffffffffffffffffffffffffffffffffffffff021916908373ffffffffffffffffffffffffffffffffffffffff160217905550808273ffffffffffffffffffffffffffffffffffffffff16600073ffffffffffffffffffffffffffffffffffffffff167fddf252ad1be2c89b69c2b068fc378daa952ba7f163c4a11628f55a4df523b3ef60405160405180910390a4611b056000838360016116a9565b5050565b6000808273ffffffffffffffffffffffffffffffffffffffff163b119050919050565b606060006001611b3b84611c04565b01905060008167ffffffffffffffff811115611b5a57611b59612a57565b5b6040519080825280601f01601f191660200182016040528015611b8c5781602001600182028036833780820191505090505b509050600082602001820190505b600115611bf9578080600190039150507f3031323334353637383961626364656600000000000000000000000000000000600a86061a8153600a8581611be357611be26129f9565b5b0494506000851415611bf457611bf9565b611b9a565b819350505050919050565b600080600090507a184f03e93ff9f4daa797ed6e38ed64bf6a1f0100000000000000008310611c62577a184f03e93ff9f4daa797ed6e38ed64bf6a1f0100000000000000008381611c5857611c576129f9565b5b0492506040810190505b6d04ee2d6d415b85acef81000000008310611c9f576d04ee2d6d415b85acef81000000008381611c9557611c946129f9565b5b0492506020810190505b662386f26fc100008310611cce57662386f26fc100008381611cc457611cc36129f9565b5b0492506010810190505b6305f5e1008310611cf7576305f5e1008381611ced57611cec6129f9565b5b0492506008810190505b6127108310611d1c576127108381611d1257611d116129f9565b5b0492506004810190505b60648310611d3f5760648381611d3557611d346129f9565b5b0492506002810190505b600a8310611d4e576001810190505b80915050919050565b828054611d6390612967565b90600052602060002090601f016020900481019282611d855760008555611dcc565b82601f10611d9e57805160ff1916838001178555611dcc565b82800160010185558215611dcc579182015b82811115611dcb578251825591602001919060010190611db0565b5b509050611dd99190611ddd565b5090565b5b80821115611df6576000816000905550600101611dde565b5090565b6000611e0d611e0884612782565b61275d565b905082815260208101848484011115611e2957611e28612a8b565b5b611e34848285612925565b509392505050565b6000611e4f611e4a846127b3565b61275d565b905082815260208101848484011115611e6b57611e6a612a8b565b5b611e76848285612925565b509392505050565b600081359050611e8d81612e3f565b92915050565b600081359050611ea281612e56565b92915050565b600081359050611eb781612e6d565b92915050565b600081519050611ecc81612e6d565b92915050565b600082601f830112611ee757611ee6612a86565b5b8135611ef7848260208601611dfa565b91505092915050565b600082601f830112611f1557611f14612a86565b5b8135611f25848260208601611e3c565b91505092915050565b600081359050611f3d81612e84565b92915050565b600060208284031215611f5957611f58612a95565b5b6000611f6784828501611e7e565b91505092915050565b60008060408385031215611f8757611f86612a95565b5b6000611f9585828601611e7e565b9250506020611fa685828601611e7e565b9150509250929050565b600080600060608486031215611fc957611fc8612a95565b5b6000611fd786828701611e7e565b9350506020611fe886828701611e7e565b9250506040611ff986828701611f2e565b9150509250925092565b6000806000806080858703121561201d5761201c612a95565b5b600061202b87828801611e7e565b945050602061203c87828801611e7e565b935050604061204d87828801611f2e565b925050606085013567ffffffffffffffff81111561206e5761206d612a90565b5b61207a87828801611ed2565b91505092959194509250565b6000806040838503121561209d5761209c612a95565b5b60006120ab85828601611e7e565b92505060206120bc85828601611e93565b9150509250929050565b600080604083850312156120dd576120dc612a95565b5b60006120eb85828601611e7e565b925050602083013567ffffffffffffffff81111561210c5761210b612a90565b5b61211885828601611f00565b9150509250929050565b6000806040838503121561213957612138612a95565b5b600061214785828601611e7e565b925050602061215885828601611f2e565b9150509250929050565b60006020828403121561217857612177612a95565b5b600061218684828501611ea8565b91505092915050565b6000602082840312156121a5576121a4612a95565b5b60006121b384828501611ebd565b91505092915050565b6000602082840312156121d2576121d1612a95565b5b60006121e084828501611f2e565b91505092915050565b6121f2816128b1565b82525050565b612201816128c3565b82525050565b6000612212826127e4565b61221c81856127fa565b935061222c818560208601612934565b61223581612a9a565b840191505092915050565b600061224b826127ef565b612255818561280b565b9350612265818560208601612934565b61226e81612a9a565b840191505092915050565b6000612284826127ef565b61228e818561281c565b935061229e818560208601612934565b80840191505092915050565b60006122b7602d8361280b565b91506122c282612aab565b604082019050919050565b60006122da60328361280b565b91506122e582612afa565b604082019050919050565b60006122fd60268361280b565b915061230882612b49565b604082019050919050565b600061232060258361280b565b915061232b82612b98565b604082019050919050565b6000612343601c8361280b565b915061234e82612be7565b602082019050919050565b600061236660248361280b565b915061237182612c10565b604082019050919050565b600061238960198361280b565b915061239482612c5f565b602082019050919050565b60006123ac60298361280b565b91506123b782612c88565b604082019050919050565b60006123cf602e8361280b565b91506123da82612cd7565b604082019050919050565b60006123f260208361280b565b91506123fd82612d26565b602082019050919050565b600061241560208361280b565b915061242082612d4f565b602082019050919050565b600061243860188361280b565b915061244382612d78565b602082019050919050565b600061245b60218361280b565b915061246682612da1565b604082019050919050565b600061247e603d8361280b565b915061248982612df0565b604082019050919050565b61249d8161291b565b82525050565b60006124af8284612279565b915081905092915050565b60006124c68285612279565b91506124d28284612279565b91508190509392505050565b60006020820190506124f360008301846121e9565b92915050565b600060808201905061250e60008301876121e9565b61251b60208301866121e9565b6125286040830185612494565b818103606083015261253a8184612207565b905095945050505050565b600060208201905061255a60008301846121f8565b92915050565b6000602082019050818103600083015261257a8184612240565b905092915050565b6000602082019050818103600083015261259b816122aa565b9050919050565b600060208201905081810360008301526125bb816122cd565b9050919050565b600060208201905081810360008301526125db816122f0565b9050919050565b600060208201905081810360008301526125fb81612313565b9050919050565b6000602082019050818103600083015261261b81612336565b9050919050565b6000602082019050818103600083015261263b81612359565b9050919050565b6000602082019050818103600083015261265b8161237c565b9050919050565b6000602082019050818103600083015261267b8161239f565b9050919050565b6000602082019050818103600083015261269b816123c2565b9050919050565b600060208201905081810360008301526126bb816123e5565b9050919050565b600060208201905081810360008301526126db81612408565b9050919050565b600060208201905081810360008301526126fb8161242b565b9050919050565b6000602082019050818103600083015261271b8161244e565b9050919050565b6000602082019050818103600083015261273b81612471565b9050919050565b60006020820190506127576000830184612494565b92915050565b6000612767612778565b90506127738282612999565b919050565b6000604051905090565b600067ffffffffffffffff82111561279d5761279c612a57565b5b6127a682612a9a565b9050602081019050919050565b600067ffffffffffffffff8211156127ce576127cd612a57565b5b6127d782612a9a565b9050602081019050919050565b600081519050919050565b600081519050919050565b600082825260208201905092915050565b600082825260208201905092915050565b600081905092915050565b60006128328261291b565b915061283d8361291b565b9250827fffffffffffffffffffffffffffffffffffffffffffffffffffffffffffffffff03821115612872576128716129ca565b5b828201905092915050565b60006128888261291b565b91506128938361291b565b9250828210156128a6576128a56129ca565b5b828203905092915050565b60006128bc826128fb565b9050919050565b60008115159050919050565b60007fffffffff0000000000000000000000000000000000000000000000000000000082169050919050565b600073ffffffffffffffffffffffffffffffffffffffff82169050919050565b6000819050919050565b82818337600083830152505050565b60005b83811015612952578082015181840152602081019050612937565b83811115612961576000848401525b50505050565b6000600282049050600182168061297f57607f821691505b6020821081141561299357612992612a28565b5b50919050565b6129a282612a9a565b810181811067ffffffffffffffff821117156129c1576129c0612a57565b5b80604052505050565b7f4e487b7100000000000000000000000000000000000000000000000000000000600052601160045260246000fd5b7f4e487b7100000000000000000000000000000000000000000000000000000000600052601260045260246000fd5b7f4e487b7100000000000000000000000000000000000000000000000000000000600052602260045260246000fd5b7f4e487b7100000000000000000000000000000000000000000000000000000000600052604160045260246000fd5b600080fd5b600080fd5b600080fd5b600080fd5b6000601f19601f8301169050919050565b7f4552433732313a2063616c6c6572206973206e6f7420746f6b656e206f776e6560008201527f72206f7220617070726f76656400000000000000000000000000000000000000602082015250565b7f4552433732313a207472616e7366657220746f206e6f6e20455243373231526560008201527f63656976657220696d706c656d656e7465720000000000000000000000000000602082015250565b7f4f776e61626c653a206e6577206f776e657220697320746865207a65726f206160008201527f6464726573730000000000000000000000000000000000000000000000000000602082015250565b7f4552433732313a207472616e736665722066726f6d20696e636f72726563742060008201527f6f776e6572000000000000000000000000000000000000000000000000000000602082015250565b7f4552433732313a20746f6b656e20616c7265616479206d696e74656400000000600082015250565b7f4552433732313a207472616e7366657220746f20746865207a65726f2061646460008201527f7265737300000000000000000000000000000000000000000000000000000000602082015250565b7f4552433732313a20617070726f766520746f2063616c6c657200000000000000600082015250565b7f4552433732313a2061646472657373207a65726f206973206e6f74206120766160008201527f6c6964206f776e65720000000000000000000000000000000000000000000000602082015250565b7f45524337323155524953746f726167653a2055524920736574206f66206e6f6e60008201527f6578697374656e7420746f6b656e000000000000000000000000000000000000602082015250565b7f4552433732313a206d696e7420746f20746865207a65726f2061646472657373600082015250565b7f4f776e61626c653a2063616c6c6572206973206e6f7420746865206f776e6572600082015250565b7f4552433732313a20696e76616c696420746f6b656e2049440000000000000000600082015250565b7f4552433732313a20617070726f76616c20746f2063757272656e74206f776e6560008201527f7200000000000000000000000000000000000000000000000000000000000000602082015250565b7f4552433732313a20617070726f76652063616c6c6572206973206e6f7420746f60008201527f6b656e206f776e6572206f7220617070726f76656420666f7220616c6c000000602082015250565b612e48816128b1565b8114612e5357600080fd5b50565b612e5f816128c3565b8114612e6a57600080fd5b50565b612e76816128cf565b8114612e8157600080fd5b50565b612e8d8161291b565b8114612e9857600080fd5b5056fea26469706673582212206a713e81862ace0babcd733a06b505572f399192dc2645fa3395512f1b065c6364736f6c63430008070033",
  "linkReferences": {},
  "deployedLinkReferences": {}
}