{
  "_format": "hh-sol-artifact-1",
  "contractName": "GptNft",
  "sourceName": "contracts/GptNft.sol",
  "abi": [
    {
      "inputs": [],
      "stateMutability": "nonpayable",
      "type": "constructor"
    },
    {
      "inputs": [],
      "name": "GptNftMetadata__URI_QueryFor_NonExistentToken",
      "type": "error"
    },
    {
      "anonymous": false,
      "inputs": [
        {
          "indexed": true,
          "internalType": "address",
          "name": "owner",
          "type": "address"
        },
        {
          "indexed": true,
          "internalType": "address",
          "name": "approved",
          "type": "address"
        },
        {
          "indexed": true,
          "internalType": "uint256",
          "name": "tokenId",
          "type": "uint256"
        }
      ],
      "name": "Approval",
      "type": "event"
    },
    {
      "anonymous": false,
      "inputs": [
        {
          "indexed": true,
          "internalType": "address",
          "name": "owner",
          "type": "address"
        },
        {
          "indexed": true,
          "internalType": "address",
          "name": "operator",
          "type": "address"
        },
        {
          "indexed": false,
          "internalType": "bool",
          "name": "approved",
          "type": "bool"
        }
      ],
      "name": "ApprovalForAll",
      "type": "event"
    },
    {
      "anonymous": false,
      "inputs": [
        {
          "indexed": true,
          "internalType": "uint256",
          "name": "tokenId",
          "type": "uint256"
        },
        {
          "indexed": true,
          "internalType": "string",
          "name": "imageURI",
          "type": "string"
        }
      ],
      "name": "NftMinted",
      "type": "event"
    },
    {
      "anonymous": false,
      "inputs": [
        {
          "indexed": true,
          "internalType": "address",
          "name": "previousOwner",
          "type": "address"
        },
        {
          "indexed": true,
          "internalType": "address",
          "name": "newOwner",
          "type": "address"
        }
      ],
      "name": "OwnershipTransferred",
      "type": "event"
    },
    {
      "anonymous": false,
      "inputs": [
        {
          "indexed": true,
          "internalType": "address",
          "name": "from",
          "type": "address"
        },
        {
          "indexed": true,
          "internalType": "address",
          "name": "to",
          "type": "address"
        },
        {
          "indexed": true,
          "internalType": "uint256",
          "name": "tokenId",
          "type": "uint256"
        }
      ],
      "name": "Transfer",
      "type": "event"
    },
    {
      "inputs": [
        {
          "internalType": "address",
          "name": "to",
          "type": "address"
        },
        {
          "internalType": "uint256",
          "name": "tokenId",
          "type": "uint256"
        }
      ],
      "name": "approve",
      "outputs": [],
      "stateMutability": "nonpayable",
      "type": "function"
    },
    {
      "inputs": [
        {
          "internalType": "address",
          "name": "owner",
          "type": "address"
        }
      ],
      "name": "balanceOf",
      "outputs": [
        {
          "internalType": "uint256",
          "name": "",
          "type": "uint256"
        }
      ],
      "stateMutability": "view",
      "type": "function"
    },
    {
      "inputs": [
        {
          "internalType": "uint256",
          "name": "tokenId",
          "type": "uint256"
        }
      ],
      "name": "getApproved",
      "outputs": [
        {
          "internalType": "address",
          "name": "",
          "type": "address"
        }
      ],
      "stateMutability": "view",
      "type": "function"
    },
    {
      "inputs": [],
      "name": "getTokenCounter",
      "outputs": [
        {
          "internalType": "uint256",
          "name": "",
          "type": "uint256"
        }
      ],
      "stateMutability": "view",
      "type": "function"
    },
    {
      "inputs": [
        {
          "internalType": "address",
          "name": "owner",
          "type": "address"
        },
        {
          "internalType": "address",
          "name": "operator",
          "type": "address"
        }
      ],
      "name": "isApprovedForAll",
      "outputs": [
        {
          "internalType": "bool",
          "name": "",
          "type": "bool"
        }
      ],
      "stateMutability": "view",
      "type": "function"
    },
    {
      "inputs": [
        {
          "internalType": "address",
          "name": "to",
          "type": "address"
        },
        {
          "internalType": "string",
          "name": "tokenUri",
          "type": "string"
        }
      ],
      "name": "mintNft",
      "outputs": [],
      "stateMutability": "nonpayable",
      "type": "function"
    },
    {
      "inputs": [],
      "name": "name",
      "outputs": [
        {
          "internalType": "string",
          "name": "",
          "type": "string"
        }
      ],
      "stateMutability": "view",
      "type": "function"
    },
    {
      "inputs": [],
      "name": "owner",
      "outputs": [
        {
          "internalType": "address",
          "name": "",
          "type": "address"
        }
      ],
      "stateMutability": "view",
      "type": "function"
    },
    {
      "inputs": [
        {
          "internalType": "uint256",
          "name": "tokenId",
          "type": "uint256"
        }
      ],
      "name": "ownerOf",
      "outputs": [
        {
          "internalType": "address",
          "name": "",
          "type": "address"
        }
      ],
      "stateMutability": "view",
      "type": "function"
    },
    {
      "inputs": [],
      "name": "renounceOwnership",
      "outputs": [],
      "stateMutability": "nonpayable",
      "type": "function"
    },
    {
      "inputs": [
        {
          "internalType": "address",
          "name": "from",
          "type": "address"
        },
        {
          "internalType": "address",
          "name": "to",
          "type": "address"
        },
        {
          "internalType": "uint256",
          "name": "tokenId",
          "type": "uint256"
        }
      ],
      "name": "safeTransferFrom",
      "outputs": [],
      "stateMutability": "nonpayable",
      "type": "function"
    },
    {
      "inputs": [
        {
          "internalType": "address",
          "name": "from",
          "type": "address"
        },
        {
          "internalType": "address",
          "name": "to",
          "type": "address"
        },
        {
          "internalType": "uint256",
          "name": "tokenId",
          "type": "uint256"
        },
        {
          "internalType": "bytes",
          "name": "data",
          "type": "bytes"
        }
      ],
      "name": "safeTransferFrom",
      "outputs": [],
      "stateMutability": "nonpayable",
      "type": "function"
    },
    {
      "inputs": [
        {
          "internalType": "address",
          "name": "operator",
          "type": "address"
        },
        {
          "internalType": "bool",
          "name": "approved",
          "type": "bool"
        }
      ],
      "name": "setApprovalForAll",
      "outputs": [],
      "stateMutability": "nonpayable",
      "type": "function"
    },
    {
      "inputs": [
        {
          "internalType": "bytes4",
          "name": "interfaceId",
          "type": "bytes4"
        }
      ],
      "name": "supportsInterface",
      "outputs": [
        {
          "internalType": "bool",
          "name": "",
          "type": "bool"
        }
      ],
      "stateMutability": "view",
      "type": "function"
    },
    {
      "inputs": [],
      "name": "symbol",
      "outputs": [
        {
          "internalType": "string",
          "name": "",
          "type": "string"
        }
      ],
      "stateMutability": "view",
      "type": "function"
    },
    {
      "inputs": [
        {
          "internalType": "uint256",
          "name": "tokenId",
          "type": "uint256"
        }
      ],
      "name": "tokenURI",
      "outputs": [
        {
          "internalType": "string",
          "name": "",
          "type": "string"
        }
      ],
      "stateMutability": "view",
      "type": "function"
    },
    {
      "inputs": [
        {
          "internalType": "address",
          "name": "from",
          "type": "address"
        },
        {
          "internalType": "address",
          "name": "to",
          "type": "address"
        },
        {
          "internalType": "uint256",
          "name": "tokenId",
          "type": "uint256"
        }
      ],
      "name": "transferFrom",
      "outputs": [],
      "stateMutability": "nonpayable",
      "type": "function"
    },
    {
      "inputs": [
        {
          "internalType": "address",
          "name": "newOwner",
          "type": "address"
        }
      ],
      "name": "transferOwnership",
      "outputs": [],
      "stateMutability": "nonpayable",
      "type": "function"
    }
  ],
  "bytecode": "0x60806040523480156200001157600080fd5b506040518060400160405280600681526020017f4770744e667400000000000000000000000000000000000000000000000000008152506040518060400160405280600381526020017f4746540000000000000000000000000000000000000000000000000000000000815250816000908051906020019062000096929190620001c5565b508060019080519060200190620000af929190620001c5565b505050620000d2620000c6620000f460201b60201c565b620000fc60201b60201c565b620000ee67a93dbe0752d977a160c01b620001c260201b60201c565b620002da565b600033905090565b6000600760009054906101000a900473ffffffffffffffffffffffffffffffffffffffff16905081600760006101000a81548173ffffffffffffffffffffffffffffffffffffffff021916908373ffffffffffffffffffffffffffffffffffffffff1602179055508173ffffffffffffffffffffffffffffffffffffffff168173ffffffffffffffffffffffffffffffffffffffff167f8be0079c531659141344cd1fd0a4f28419497f9722a3daafe3b4186f6b6457e060405160405180910390a35050565b50565b828054620001d39062000275565b90600052602060002090601f016020900481019282620001f7576000855562000243565b82601f106200021257805160ff191683800117855562000243565b8280016001018555821562000243579182015b828111156200024257825182559160200191906001019062000225565b5b50905062000252919062000256565b5090565b5b808211156200027157600081600090555060010162000257565b5090565b600060028204905060018216806200028e57607f821691505b60208210811415620002a557620002a4620002ab565b5b50919050565b7f4e487b7100000000000000000000000000000000000000000000000000000000600052602260045260246000fd5b61317c80620002ea6000396000f3fe608060405234801561001057600080fd5b50600436106101165760003560e01c806370a08231116100a2578063a22cb46511610071578063a22cb465146102cd578063b88d4fde146102e9578063c87b56dd14610305578063e985e9c514610335578063f2fde38b1461036557610116565b806370a0823114610257578063715018a6146102875780638da5cb5b1461029157806395d89b41146102af57610116565b806311f87b19116100e957806311f87b19146101b557806323b872dd146101d157806342842e0e146101ed5780636352211e146102095780636e02007d1461023957610116565b806301ffc9a71461011b57806306fdde031461014b578063081812fc14610169578063095ea7b314610199575b600080fd5b6101356004803603810190610130919061240d565b610381565b60405161014291906127f0565b60405180910390f35b610153610463565b604051610160919061280b565b60405180910390f35b610183600480360381019061017e9190612467565b6104f5565b6040516101909190612789565b60405180910390f35b6101b360048036038101906101ae91906123cd565b61053b565b005b6101cf60048036038101906101ca9190612371565b610653565b005b6101eb60048036038101906101e6919061225b565b6107de565b005b6102076004803603810190610202919061225b565b61083e565b005b610223600480360381019061021e9190612467565b61085e565b6040516102309190612789565b60405180910390f35b6102416108e5565b60405161024e91906129ed565b60405180910390f35b610271600480360381019061026c91906121ee565b610932565b60405161027e91906129ed565b60405180910390f35b61028f6109ea565b005b6102996109fe565b6040516102a69190612789565b60405180910390f35b6102b7610a28565b6040516102c4919061280b565b60405180910390f35b6102e760048036038101906102e29190612331565b610aba565b005b61030360048036038101906102fe91906122ae565b610ad0565b005b61031f600480360381019061031a9190612467565b610b32565b60405161032c919061280b565b60405180910390f35b61034f600480360381019061034a919061221b565b610c23565b60405161035c91906127f0565b60405180910390f35b61037f600480360381019061037a91906121ee565b610cb7565b005b60007f80ac58cd000000000000000000000000000000000000000000000000000000007bffffffffffffffffffffffffffffffffffffffffffffffffffffffff1916827bffffffffffffffffffffffffffffffffffffffffffffffffffffffff1916148061044c57507f5b5e139f000000000000000000000000000000000000000000000000000000007bffffffffffffffffffffffffffffffffffffffffffffffffffffffff1916827bffffffffffffffffffffffffffffffffffffffffffffffffffffffff1916145b8061045c575061045b82610d3b565b5b9050919050565b60606000805461047290612c12565b80601f016020809104026020016040519081016040528092919081815260200182805461049e90612c12565b80156104eb5780601f106104c0576101008083540402835291602001916104eb565b820191906000526020600020905b8154815290600101906020018083116104ce57829003601f168201915b5050505050905090565b600061050082610da5565b6004600083815260200190815260200160002060009054906101000a900473ffffffffffffffffffffffffffffffffffffffff169050919050565b60006105468261085e565b90508073ffffffffffffffffffffffffffffffffffffffff168373ffffffffffffffffffffffffffffffffffffffff1614156105b7576040517f08c379a00000000000000000000000000000000000000000000000000000000081526004016105ae906129ad565b60405180910390fd5b8073ffffffffffffffffffffffffffffffffffffffff166105d6610df0565b73ffffffffffffffffffffffffffffffffffffffff1614806106055750610604816105ff610df0565b610c23565b5b610644576040517f08c379a000000000000000000000000000000000000000000000000000000000815260040161063b906129cd565b60405180910390fd5b61064e8383610df8565b505050565b61066767078fcbdbf566e1a360c01b610eb1565b61067b674852f9a7490a6eb560c01b610eb1565b61068f67296eb306677148c460c01b610eb1565b6106996008610eb4565b6106ac66cec2a30a5af38f60c01b610eb1565b6106c0675a696cfb53fd9fdb60c01b610eb1565b60006106cc6008610eca565b90506106e267bbce41d5fba9bbbb60c01b610eb1565b81600960008381526020019081526020016000209080519060200190610709929190612002565b5061071e679f826b21091bbe1360c01b610eb1565b61073267b9611431998a428660c01b610eb1565b61073c8382610ed8565b610750674136d02f2d254e4c60c01b610eb1565b61076467c16c59a6e8b3d8d460c01b610eb1565b61076e8183610ef6565b6107826788092389322e67d760c01b610eb1565b61079667fa6e9625ad1ff18d60c01b610eb1565b816040516107a4919061274e565b6040518091039020817fe578c8f75165e747c939a516a93901610990f0f120d839b08ce89b77ad220f1e60405160405180910390a3505050565b6107ef6107e9610df0565b82610f6a565b61082e576040517f08c379a00000000000000000000000000000000000000000000000000000000081526004016108259061282d565b60405180910390fd5b610839838383610fff565b505050565b61085983838360405180602001604052806000815250610ad0565b505050565b60008061086a836112f9565b9050600073ffffffffffffffffffffffffffffffffffffffff168173ffffffffffffffffffffffffffffffffffffffff1614156108dc576040517f08c379a00000000000000000000000000000000000000000000000000000000081526004016108d39061298d565b60405180910390fd5b80915050919050565b60006108fb67b4c202990ce5e27160c01b610eb1565b61090f67706fb6d98474cb1160c01b610eb1565b61092367448e23e0384f3ffc60c01b610eb1565b61092d6008610eca565b905090565b60008073ffffffffffffffffffffffffffffffffffffffff168273ffffffffffffffffffffffffffffffffffffffff1614156109a3576040517f08c379a000000000000000000000000000000000000000000000000000000000815260040161099a9061290d565b60405180910390fd5b600360008373ffffffffffffffffffffffffffffffffffffffff1673ffffffffffffffffffffffffffffffffffffffff168152602001908152602001600020549050919050565b6109f2611336565b6109fc60006113b4565b565b6000600760009054906101000a900473ffffffffffffffffffffffffffffffffffffffff16905090565b606060018054610a3790612c12565b80601f0160208091040260200160405190810160405280929190818152602001828054610a6390612c12565b8015610ab05780601f10610a8557610100808354040283529160200191610ab0565b820191906000526020600020905b815481529060010190602001808311610a9357829003601f168201915b5050505050905090565b610acc610ac5610df0565b838361147a565b5050565b610ae1610adb610df0565b83610f6a565b610b20576040517f08c379a0000000000000000000000000000000000000000000000000000000008152600401610b179061282d565b60405180910390fd5b610b2c848484846115e7565b50505050565b6060610b4867d6b6b3b16714768160c01b610eb1565b610b5c67ebc1a6e756a8773460c01b610eb1565b610b70679fa687dce2f0a25760c01b610eb1565b610b7982611643565b610bd757610b91670e6c1325231ac4ec60c01b610eb1565b610ba567af8d06fa771c1f5b60c01b610eb1565b6040517fb4cea28800000000000000000000000000000000000000000000000000000000815260040160405180910390fd5b610beb671a9a081ccef9e73160c01b610eb1565b610bff6725792b1d2aeb82e260c01b610eb1565b610c13673ae1299721a776a560c01b610eb1565b610c1c82611684565b9050919050565b6000600560008473ffffffffffffffffffffffffffffffffffffffff1673ffffffffffffffffffffffffffffffffffffffff16815260200190815260200160002060008373ffffffffffffffffffffffffffffffffffffffff1673ffffffffffffffffffffffffffffffffffffffff16815260200190815260200160002060009054906101000a900460ff16905092915050565b610cbf611336565b600073ffffffffffffffffffffffffffffffffffffffff168173ffffffffffffffffffffffffffffffffffffffff161415610d2f576040517f08c379a0000000000000000000000000000000000000000000000000000000008152600401610d269061286d565b60405180910390fd5b610d38816113b4565b50565b60007f01ffc9a7000000000000000000000000000000000000000000000000000000007bffffffffffffffffffffffffffffffffffffffffffffffffffffffff1916827bffffffffffffffffffffffffffffffffffffffffffffffffffffffff1916149050919050565b610dae81611643565b610ded576040517f08c379a0000000000000000000000000000000000000000000000000000000008152600401610de49061298d565b60405180910390fd5b50565b600033905090565b816004600083815260200190815260200160002060006101000a81548173ffffffffffffffffffffffffffffffffffffffff021916908373ffffffffffffffffffffffffffffffffffffffff160217905550808273ffffffffffffffffffffffffffffffffffffffff16610e6b8361085e565b73ffffffffffffffffffffffffffffffffffffffff167f8c5be1e5ebec7d5bd14f71427d1e84f3dd0314c0f7b2291e5b200ac8c7c3b92560405160405180910390a45050565b50565b6001816000016000828254019250508190555050565b600081600001549050919050565b610ef2828260405180602001604052806000815250611797565b5050565b610eff82611643565b610f3e576040517f08c379a0000000000000000000000000000000000000000000000000000000008152600401610f359061292d565b60405180910390fd5b80600660008481526020019081526020016000209080519060200190610f65929190612002565b505050565b600080610f768361085e565b90508073ffffffffffffffffffffffffffffffffffffffff168473ffffffffffffffffffffffffffffffffffffffff161480610fb85750610fb78185610c23565b5b80610ff657508373ffffffffffffffffffffffffffffffffffffffff16610fde846104f5565b73ffffffffffffffffffffffffffffffffffffffff16145b91505092915050565b8273ffffffffffffffffffffffffffffffffffffffff1661101f8261085e565b73ffffffffffffffffffffffffffffffffffffffff1614611075576040517f08c379a000000000000000000000000000000000000000000000000000000000815260040161106c9061288d565b60405180910390fd5b600073ffffffffffffffffffffffffffffffffffffffff168273ffffffffffffffffffffffffffffffffffffffff1614156110e5576040517f08c379a00000000000000000000000000000000000000000000000000000000081526004016110dc906128cd565b60405180910390fd5b6110f283838360016117f2565b8273ffffffffffffffffffffffffffffffffffffffff166111128261085e565b73ffffffffffffffffffffffffffffffffffffffff1614611168576040517f08c379a000000000000000000000000000000000000000000000000000000000815260040161115f9061288d565b60405180910390fd5b6004600082815260200190815260200160002060006101000a81549073ffffffffffffffffffffffffffffffffffffffff02191690556001600360008573ffffffffffffffffffffffffffffffffffffffff1673ffffffffffffffffffffffffffffffffffffffff168152602001908152602001600020600082825403925050819055506001600360008473ffffffffffffffffffffffffffffffffffffffff1673ffffffffffffffffffffffffffffffffffffffff16815260200190815260200160002060008282540192505081905550816002600083815260200190815260200160002060006101000a81548173ffffffffffffffffffffffffffffffffffffffff021916908373ffffffffffffffffffffffffffffffffffffffff160217905550808273ffffffffffffffffffffffffffffffffffffffff168473ffffffffffffffffffffffffffffffffffffffff167fddf252ad1be2c89b69c2b068fc378daa952ba7f163c4a11628f55a4df523b3ef60405160405180910390a46112f48383836001611918565b505050565b60006002600083815260200190815260200160002060009054906101000a900473ffffffffffffffffffffffffffffffffffffffff169050919050565b61133e610df0565b73ffffffffffffffffffffffffffffffffffffffff1661135c6109fe565b73ffffffffffffffffffffffffffffffffffffffff16146113b2576040517f08c379a00000000000000000000000000000000000000000000000000000000081526004016113a99061296d565b60405180910390fd5b565b6000600760009054906101000a900473ffffffffffffffffffffffffffffffffffffffff16905081600760006101000a81548173ffffffffffffffffffffffffffffffffffffffff021916908373ffffffffffffffffffffffffffffffffffffffff1602179055508173ffffffffffffffffffffffffffffffffffffffff168173ffffffffffffffffffffffffffffffffffffffff167f8be0079c531659141344cd1fd0a4f28419497f9722a3daafe3b4186f6b6457e060405160405180910390a35050565b8173ffffffffffffffffffffffffffffffffffffffff168373ffffffffffffffffffffffffffffffffffffffff1614156114e9576040517f08c379a00000000000000000000000000000000000000000000000000000000081526004016114e0906128ed565b60405180910390fd5b80600560008573ffffffffffffffffffffffffffffffffffffffff1673ffffffffffffffffffffffffffffffffffffffff16815260200190815260200160002060008473ffffffffffffffffffffffffffffffffffffffff1673ffffffffffffffffffffffffffffffffffffffff16815260200190815260200160002060006101000a81548160ff0219169083151502179055508173ffffffffffffffffffffffffffffffffffffffff168373ffffffffffffffffffffffffffffffffffffffff167f17307eab39ab6107e8899845ad3d59bd9653f200f220920489ca2b5937696c31836040516115da91906127f0565b60405180910390a3505050565b6115f2848484610fff565b6115fe8484848461191e565b61163d576040517f08c379a00000000000000000000000000000000000000000000000000000000081526004016116349061284d565b60405180910390fd5b50505050565b60008073ffffffffffffffffffffffffffffffffffffffff16611665836112f9565b73ffffffffffffffffffffffffffffffffffffffff1614159050919050565b606061168f82610da5565b60006006600084815260200190815260200160002080546116af90612c12565b80601f01602080910402602001604051908101604052809291908181526020018280546116db90612c12565b80156117285780601f106116fd57610100808354040283529160200191611728565b820191906000526020600020905b81548152906001019060200180831161170b57829003601f168201915b505050505090506000611739611ab5565b905060008151141561174f578192505050611792565b60008251111561178457808260405160200161176c929190612765565b60405160208183030381529060405292505050611792565b61178d84611b2e565b925050505b919050565b6117a18383611b96565b6117ae600084848461191e565b6117ed576040517f08c379a00000000000000000000000000000000000000000000000000000000081526004016117e49061284d565b60405180910390fd5b505050565b600181111561191257600073ffffffffffffffffffffffffffffffffffffffff168473ffffffffffffffffffffffffffffffffffffffff16146118865780600360008673ffffffffffffffffffffffffffffffffffffffff1673ffffffffffffffffffffffffffffffffffffffff168152602001908152602001600020600082825461187e9190612b28565b925050819055505b600073ffffffffffffffffffffffffffffffffffffffff168373ffffffffffffffffffffffffffffffffffffffff16146119115780600360008573ffffffffffffffffffffffffffffffffffffffff1673ffffffffffffffffffffffffffffffffffffffff16815260200190815260200160002060008282546119099190612ad2565b925050819055505b5b50505050565b50505050565b600061193f8473ffffffffffffffffffffffffffffffffffffffff16611db4565b15611aa8578373ffffffffffffffffffffffffffffffffffffffff1663150b7a02611968610df0565b8786866040518563ffffffff1660e01b815260040161198a94939291906127a4565b602060405180830381600087803b1580156119a457600080fd5b505af19250505080156119d557506040513d601f19601f820116820180604052508101906119d2919061243a565b60015b611a58573d8060008114611a05576040519150601f19603f3d011682016040523d82523d6000602084013e611a0a565b606091505b50600081511415611a50576040517f08c379a0000000000000000000000000000000000000000000000000000000008152600401611a479061284d565b60405180910390fd5b805181602001fd5b63150b7a0260e01b7bffffffffffffffffffffffffffffffffffffffffffffffffffffffff1916817bffffffffffffffffffffffffffffffffffffffffffffffffffffffff191614915050611aad565b600190505b949350505050565b6060611acb67c4fe96c8904eab9660c01b610eb1565b611adf67140577f17c4d466160c01b610eb1565b611af367a6bdc488c24915c860c01b610eb1565b6040518060400160405280601581526020017f68747470733a2f2f697066732e696f2f697066732f0000000000000000000000815250905090565b6060611b3982610da5565b6000611b43611ab5565b90506000815111611b635760405180602001604052806000815250611b8e565b80611b6d84611dd7565b604051602001611b7e929190612765565b6040516020818303038152906040525b915050919050565b600073ffffffffffffffffffffffffffffffffffffffff168273ffffffffffffffffffffffffffffffffffffffff161415611c06576040517f08c379a0000000000000000000000000000000000000000000000000000000008152600401611bfd9061294d565b60405180910390fd5b611c0f81611643565b15611c4f576040517f08c379a0000000000000000000000000000000000000000000000000000000008152600401611c46906128ad565b60405180910390fd5b611c5d6000838360016117f2565b611c6681611643565b15611ca6576040517f08c379a0000000000000000000000000000000000000000000000000000000008152600401611c9d906128ad565b60405180910390fd5b6001600360008473ffffffffffffffffffffffffffffffffffffffff1673ffffffffffffffffffffffffffffffffffffffff16815260200190815260200160002060008282540192505081905550816002600083815260200190815260200160002060006101000a81548173ffffffffffffffffffffffffffffffffffffffff021916908373ffffffffffffffffffffffffffffffffffffffff160217905550808273ffffffffffffffffffffffffffffffffffffffff16600073ffffffffffffffffffffffffffffffffffffffff167fddf252ad1be2c89b69c2b068fc378daa952ba7f163c4a11628f55a4df523b3ef60405160405180910390a4611db0600083836001611918565b5050565b6000808273ffffffffffffffffffffffffffffffffffffffff163b119050919050565b606060006001611de684611eaf565b01905060008167ffffffffffffffff811115611e0557611e04612d02565b5b6040519080825280601f01601f191660200182016040528015611e375781602001600182028036833780820191505090505b509050600082602001820190505b600115611ea4578080600190039150507f3031323334353637383961626364656600000000000000000000000000000000600a86061a8153600a8581611e8e57611e8d612ca4565b5b0494506000851415611e9f57611ea4565b611e45565b819350505050919050565b600080600090507a184f03e93ff9f4daa797ed6e38ed64bf6a1f0100000000000000008310611f0d577a184f03e93ff9f4daa797ed6e38ed64bf6a1f0100000000000000008381611f0357611f02612ca4565b5b0492506040810190505b6d04ee2d6d415b85acef81000000008310611f4a576d04ee2d6d415b85acef81000000008381611f4057611f3f612ca4565b5b0492506020810190505b662386f26fc100008310611f7957662386f26fc100008381611f6f57611f6e612ca4565b5b0492506010810190505b6305f5e1008310611fa2576305f5e1008381611f9857611f97612ca4565b5b0492506008810190505b6127108310611fc7576127108381611fbd57611fbc612ca4565b5b0492506004810190505b60648310611fea5760648381611fe057611fdf612ca4565b5b0492506002810190505b600a8310611ff9576001810190505b80915050919050565b82805461200e90612c12565b90600052602060002090601f0160209004810192826120305760008555612077565b82601f1061204957805160ff1916838001178555612077565b82800160010185558215612077579182015b8281111561207657825182559160200191906001019061205b565b5b5090506120849190612088565b5090565b5b808211156120a1576000816000905550600101612089565b5090565b60006120b86120b384612a2d565b612a08565b9050828152602081018484840111156120d4576120d3612d36565b5b6120df848285612bd0565b509392505050565b60006120fa6120f584612a5e565b612a08565b90508281526020810184848401111561211657612115612d36565b5b612121848285612bd0565b509392505050565b600081359050612138816130ea565b92915050565b60008135905061214d81613101565b92915050565b60008135905061216281613118565b92915050565b60008151905061217781613118565b92915050565b600082601f83011261219257612191612d31565b5b81356121a28482602086016120a5565b91505092915050565b600082601f8301126121c0576121bf612d31565b5b81356121d08482602086016120e7565b91505092915050565b6000813590506121e88161312f565b92915050565b60006020828403121561220457612203612d40565b5b600061221284828501612129565b91505092915050565b6000806040838503121561223257612231612d40565b5b600061224085828601612129565b925050602061225185828601612129565b9150509250929050565b60008060006060848603121561227457612273612d40565b5b600061228286828701612129565b935050602061229386828701612129565b92505060406122a4868287016121d9565b9150509250925092565b600080600080608085870312156122c8576122c7612d40565b5b60006122d687828801612129565b94505060206122e787828801612129565b93505060406122f8878288016121d9565b925050606085013567ffffffffffffffff81111561231957612318612d3b565b5b6123258782880161217d565b91505092959194509250565b6000806040838503121561234857612347612d40565b5b600061235685828601612129565b92505060206123678582860161213e565b9150509250929050565b6000806040838503121561238857612387612d40565b5b600061239685828601612129565b925050602083013567ffffffffffffffff8111156123b7576123b6612d3b565b5b6123c3858286016121ab565b9150509250929050565b600080604083850312156123e4576123e3612d40565b5b60006123f285828601612129565b9250506020612403858286016121d9565b9150509250929050565b60006020828403121561242357612422612d40565b5b600061243184828501612153565b91505092915050565b6000602082840312156124505761244f612d40565b5b600061245e84828501612168565b91505092915050565b60006020828403121561247d5761247c612d40565b5b600061248b848285016121d9565b91505092915050565b61249d81612b5c565b82525050565b6124ac81612b6e565b82525050565b60006124bd82612a8f565b6124c78185612aa5565b93506124d7818560208601612bdf565b6124e081612d45565b840191505092915050565b60006124f682612a9a565b6125008185612ab6565b9350612510818560208601612bdf565b61251981612d45565b840191505092915050565b600061252f82612a9a565b6125398185612ac7565b9350612549818560208601612bdf565b80840191505092915050565b6000612562602d83612ab6565b915061256d82612d56565b604082019050919050565b6000612585603283612ab6565b915061259082612da5565b604082019050919050565b60006125a8602683612ab6565b91506125b382612df4565b604082019050919050565b60006125cb602583612ab6565b91506125d682612e43565b604082019050919050565b60006125ee601c83612ab6565b91506125f982612e92565b602082019050919050565b6000612611602483612ab6565b915061261c82612ebb565b604082019050919050565b6000612634601983612ab6565b915061263f82612f0a565b602082019050919050565b6000612657602983612ab6565b915061266282612f33565b604082019050919050565b600061267a602e83612ab6565b915061268582612f82565b604082019050919050565b600061269d602083612ab6565b91506126a882612fd1565b602082019050919050565b60006126c0602083612ab6565b91506126cb82612ffa565b602082019050919050565b60006126e3601883612ab6565b91506126ee82613023565b602082019050919050565b6000612706602183612ab6565b91506127118261304c565b604082019050919050565b6000612729603d83612ab6565b91506127348261309b565b604082019050919050565b61274881612bc6565b82525050565b600061275a8284612524565b915081905092915050565b60006127718285612524565b915061277d8284612524565b91508190509392505050565b600060208201905061279e6000830184612494565b92915050565b60006080820190506127b96000830187612494565b6127c66020830186612494565b6127d3604083018561273f565b81810360608301526127e581846124b2565b905095945050505050565b600060208201905061280560008301846124a3565b92915050565b6000602082019050818103600083015261282581846124eb565b905092915050565b6000602082019050818103600083015261284681612555565b9050919050565b6000602082019050818103600083015261286681612578565b9050919050565b600060208201905081810360008301526128868161259b565b9050919050565b600060208201905081810360008301526128a6816125be565b9050919050565b600060208201905081810360008301526128c6816125e1565b9050919050565b600060208201905081810360008301526128e681612604565b9050919050565b6000602082019050818103600083015261290681612627565b9050919050565b600060208201905081810360008301526129268161264a565b9050919050565b600060208201905081810360008301526129468161266d565b9050919050565b6000602082019050818103600083015261296681612690565b9050919050565b60006020820190508181036000830152612986816126b3565b9050919050565b600060208201905081810360008301526129a6816126d6565b9050919050565b600060208201905081810360008301526129c6816126f9565b9050919050565b600060208201905081810360008301526129e68161271c565b9050919050565b6000602082019050612a02600083018461273f565b92915050565b6000612a12612a23565b9050612a1e8282612c44565b919050565b6000604051905090565b600067ffffffffffffffff821115612a4857612a47612d02565b5b612a5182612d45565b9050602081019050919050565b600067ffffffffffffffff821115612a7957612a78612d02565b5b612a8282612d45565b9050602081019050919050565b600081519050919050565b600081519050919050565b600082825260208201905092915050565b600082825260208201905092915050565b600081905092915050565b6000612add82612bc6565b9150612ae883612bc6565b9250827fffffffffffffffffffffffffffffffffffffffffffffffffffffffffffffffff03821115612b1d57612b1c612c75565b5b828201905092915050565b6000612b3382612bc6565b9150612b3e83612bc6565b925082821015612b5157612b50612c75565b5b828203905092915050565b6000612b6782612ba6565b9050919050565b60008115159050919050565b60007fffffffff0000000000000000000000000000000000000000000000000000000082169050919050565b600073ffffffffffffffffffffffffffffffffffffffff82169050919050565b6000819050919050565b82818337600083830152505050565b60005b83811015612bfd578082015181840152602081019050612be2565b83811115612c0c576000848401525b50505050565b60006002820490506001821680612c2a57607f821691505b60208210811415612c3e57612c3d612cd3565b5b50919050565b612c4d82612d45565b810181811067ffffffffffffffff82111715612c6c57612c6b612d02565b5b80604052505050565b7f4e487b7100000000000000000000000000000000000000000000000000000000600052601160045260246000fd5b7f4e487b7100000000000000000000000000000000000000000000000000000000600052601260045260246000fd5b7f4e487b7100000000000000000000000000000000000000000000000000000000600052602260045260246000fd5b7f4e487b7100000000000000000000000000000000000000000000000000000000600052604160045260246000fd5b600080fd5b600080fd5b600080fd5b600080fd5b6000601f19601f8301169050919050565b7f4552433732313a2063616c6c6572206973206e6f7420746f6b656e206f776e6560008201527f72206f7220617070726f76656400000000000000000000000000000000000000602082015250565b7f4552433732313a207472616e7366657220746f206e6f6e20455243373231526560008201527f63656976657220696d706c656d656e7465720000000000000000000000000000602082015250565b7f4f776e61626c653a206e6577206f776e657220697320746865207a65726f206160008201527f6464726573730000000000000000000000000000000000000000000000000000602082015250565b7f4552433732313a207472616e736665722066726f6d20696e636f72726563742060008201527f6f776e6572000000000000000000000000000000000000000000000000000000602082015250565b7f4552433732313a20746f6b656e20616c7265616479206d696e74656400000000600082015250565b7f4552433732313a207472616e7366657220746f20746865207a65726f2061646460008201527f7265737300000000000000000000000000000000000000000000000000000000602082015250565b7f4552433732313a20617070726f766520746f2063616c6c657200000000000000600082015250565b7f4552433732313a2061646472657373207a65726f206973206e6f74206120766160008201527f6c6964206f776e65720000000000000000000000000000000000000000000000602082015250565b7f45524337323155524953746f726167653a2055524920736574206f66206e6f6e60008201527f6578697374656e7420746f6b656e000000000000000000000000000000000000602082015250565b7f4552433732313a206d696e7420746f20746865207a65726f2061646472657373600082015250565b7f4f776e61626c653a2063616c6c6572206973206e6f7420746865206f776e6572600082015250565b7f4552433732313a20696e76616c696420746f6b656e2049440000000000000000600082015250565b7f4552433732313a20617070726f76616c20746f2063757272656e74206f776e6560008201527f7200000000000000000000000000000000000000000000000000000000000000602082015250565b7f4552433732313a20617070726f76652063616c6c6572206973206e6f7420746f60008201527f6b656e206f776e6572206f7220617070726f76656420666f7220616c6c000000602082015250565b6130f381612b5c565b81146130fe57600080fd5b50565b61310a81612b6e565b811461311557600080fd5b50565b61312181612b7a565b811461312c57600080fd5b50565b61313881612bc6565b811461314357600080fd5b5056fea2646970667358221220ccadd001c87a043c5e066a04ae6fffa42d4f2ca51499103b9e2e9efb79fcf96964736f6c63430008070033",
  "linkReferences": {},
  "deployedLinkReferences": {}
}